:100000000C94EA110C9412120C9412120C94121209
:100010000C9412120C9412120C9412120C941212D0
:100020000C9412120C9412120C94C6230C94782285
:100030000C9412120C9412120C9412120C941212B0
:100040000C9412120C946D250C9412120C94121232
:100050000C9412120C9412120C9412120C940D1D8A
:100060000C9412120C9412120C9412120C94121280
:100070000C9412120C9412120C9412120C94121270
:100080000C9412120C9412120C9412120C94121260
:100090000C9412120C9412120C9412120C94121250
:1000A0000C9412120C9412120C941212211E241E83
:1000B000171E1B1E451E451E451E281E2C1E301ECB
:1000C000361E3A1E451E401E4D49464152455F525E
:1000D0006561642829206661696C65643A200000C6
:1000E0000000000000000000000000000000000010
:1000F0000000000000000000000000000000000000
:1001000000000000000000000000000000000000EF
:1001100000000000000000000000000000000000DF
:1001200000000000000000000000000000000000CF
:10013000300000000000000000000000000000008F
:100140007C00000000000000000000000200000031
:100150007E00000000000000000000000E80000093
:100160007EC0000000000000000000003E80000093
:100170001EE000000000000000000000FE80000003
:1001800006F800000000000000000000FE00000073
:1001900000FE00000000000000000006F800000063
:1001A00000FE8000000000000000001EE0000000D3
:1001B000003EC000000000000000007EE0000000E3
:1001C00000FEF00000000000000000FEF80000004B
:1001D00000FEFC0000000000000002FEFC00000029
:1001E00002FCFE000000000000000EF6FE00000011
:1001F00006F07E800000000000003EE0FE000000EF
:100200000EE01EE00000000000007E807E80000006
:100210001EC01EF8000000000000FE003EC00000EE
:100220003EE01EFE000000000006FE007EE0000032
:100230003EF00CFE00000000001EF200E6E00000B0
:100240007E30043EC0000000003EC28EE2F000009E
:100250007C300C0EF000000000FE009E82F00000DA
:10026000FC3E1C06FC00000002FE029800F80000A4
:10027000F83E1800FE00000006F8021800F8000022
:10028000F8061802FE8000001EE0061800F80000C4
:10029000F00218FE1EE000007EC0067800FC0000A0
:1002A000F00218FE0EF80000FE668CF0007C0000E4
:1002B000F002FE8002FC0002FC7EC6C0007C000052
:1002C000F000FE0000FE000EFC38E6C0007C0000DE
:1002D000F0E0FE8000FEC03EFC0076E0007C000006
:1002E000F0FAFE8000FEF0FEFC003EF6807C00008E
:1002F000F0BAFEF000F6F0FE78003EFEE03C0000B2
:10030000F08EFEF800F0F0F87C001EFCF8FC000017
:10031000FC86FE9800F060607C701EF83EFC0000D9
:10032000FE82FE9C00F000007C7CFEF8067C000053
:10033000FE80FE8EE0F000007C6EFEF0007C00008F
:10034000F000FE06F0F000007C769EF8007C0000D5
:10035000F800FE803AF000007E300EFC00FC000049
:10036000F80282001EE000003EF006EC00F80000FB
:10037000FC0602000EE000003EE0060C00F8000063
:10038000FC06028006E000003EC0020C00F80000FF
:100390007E0600800EC000001E80060C02F00000E9
:1003A0007E0600801EC000001E800E0C02F00000C1
:1003B0003E3E00C01E8000000EC01C0C06E0000087
:1003C0003EBC00C03E8000000EE0380C0EE0000095
:1003D0001EE000C0FE00000006F0700E1EC000000F
:1003E0000EF000C0FE00000002FC6006FE8000006F
:1003F00006FC00F6FC00000000FE6000FE000000AD
:1004000002FE00FEF800000000FEE006FE00000014
:1004100000FEFAFEF0000000007EFEFEFC00000080
:1004200000FEFEFEE0000000003EFEFEF8000000C0
:10043000003EFEFE80000000000EFEFEE000000018
:10044000000EFEFE000000000002FEFE8000000024
:100450000000FEF00000000000007EFC0000000034
:10046000000000000000000000000000000000008C
:10047000000000000000000000000000000000007C
:10048000000000000000000000000000000000006C
:10049000000000000000000000000000000000005C
:1004A000000000000000000000000000000000004C
:1004B000000000000000000000000000000000003C
:1004C000000000000000000000000000000000002C
:1004D000000000000000000000000000000000001C
:1004E000000000000000000000000000000000000C
:1004F00000000000000000000000000000000000FC
:1005000000000000000000000000000000000000EB
:1005100000000000000000000000000000000000DB
:1005200000000000000000000000000000000000CB
:1005300000000000000000000000000000000000BB
:1005400000000000000000000000000000000000AB
:10055000000000000000000000000000000000009B
:10056000000000000000000000000000000000008B
:1005700000000000000000000000003EFEC000007F
:100580003EFEC000007EFEC000007EFEC000007E79
:10059000FEC000007EFEC000000000000000000061
:1005A000000000000000000000000000000000004B
:1005B000000000000000000000000000000000003B
:1005C000000000000000000000000000000000002B
:1005D000000000000000000000000000000000001B
:1005E000000000000000000000000000000000000B
:1005F00000000000000000000000000000000000FB
:1006000000000000000000000000000000000000EA
:1006100000000000000000000000000000000000DA
:1006200000000000000000000000000000000000CA
:1006300000000000000000000000000000000000BA
:1006400000000000000000000000000000000000AA
:10065000000000000000000000000000000000009A
:10066000000000000000000000000000000000008A
:10067000000000000000000000000000000000007A
:10068000000000000000000000000000000000006A
:10069000000006F800FE0006F802FE0006FC06FE5A
:1006A0000002FC06FC0002FE0EF80000FE1EF00038
:1006B00000FE1EF00000FEBEE000007EFEC0000056
:1006C0007EFEC000003EFE8000003EFE0000001ED8
:1006D000FE0000000EFE0000000EFC0000000EFCFC
:1006E0000000001EFC0000001EFE0000003EFE0098
:1006F00000007EFE000000FEFE800000FEFE800086
:1007000000FE7EC00002FE3EE00006FE3EE0000667
:10071000FC1EF0000EF80EF0001EF00EF8003EF089
:1007200006FC003EE006FC003EC002FC00000000AB
:1007300000000000000000000000000000000000B9
:1007400000000000000000000000000000000000A9
:100750000000000000000000000000000000000099
:100760000000000000000000000000000000000089
:100770000000000000000000000000000000000079
:100780000000000000000000000000000000000069
:100790000000000000000000000000000000000059
:1007A0000000000000000000000000000000000049
:1007B0000000000000000000000000000000000039
:1007C0000000000000000000000000000000000029
:1007D00000000000FE00000000FE00000000FE001F
:1007E000000000FE00000000FE00000000FE00000F
:1007F0000000FE00000000FE00000000FE000000FF
:1008000000FE00000000FE00000000FE00000000EE
:10081000FE00001EFEFEFEE01EFEFEFEE01EFEFED0
:10082000FEE01EFEFEFEE01EFEFEFEE01EFEFEFEE2
:10083000E00000FE00000000FE00000000FE0000DE
:100840000000FE00000000FE00000000FE000000AE
:1008500000FE00000000FE00000000FE000000009E
:10086000FE00000000FE00000000FE00000000008E
:100870000000000000000000000000000000000078
:100880000000000000000000000000000000000068
:100890000000000000000000000000000000000058
:1008A0000000000000000000000000000000000048
:1008B0000000000000000000000000000000000038
:1008C00000000000000000000000000000F000FC3C
:1008D0000000F002FE0000F002FE0002F006FE80C2
:1008E00002F006FE8006F00EFE800EF00E8E800EE8
:1008F000F00E86C01EF00E06C01EF01E06C00EF0E2
:100900001E02C00EF01E02C00CF01E02C000F01E3F
:1009100002C000F01E02C000E01E02C000E01E0681
:10092000C000E01E06C000E01E06C000E01E0EC0B3
:1009300000E00E9E8000E00EFE8000E00EFE8000D3
:10094000E00EFE8000E006FE8000E006FE8000E093
:1009500002FE0000E000EE0000E0000E0000E000FB
:100960001E0000E0001E0000E0001E0000E0001E6F
:100970000000E0003E0000E0003E0000E0003C001F
:1009800000E0007C0000E0007C0000E00078000057
:10099000E000780000E000F80000E000F80000E06F
:1009A00000F0000000000000000000000000000057
:1009B0000000000000000000000000000000000037
:1009C0000000000000000000000000000000000027
:1009D0000000000000000000000000000000000017
:1009E0000000000000000000000000000000000007
:1009F00000000000000000000000000000000000F7
:100A0000000000000000000000000000007800FE70
:100A100000007800FE8000F802FEC000F802FEC070
:100A200000F806FEE002F806E6E006F806C2E00678
:100A3000F80680E00EF80680E00EF80680E006F882
:100A40000680E006780680E006780680E0007806FA
:100A500082E0007806C2E0007006C6C000F006EE34
:100A6000C000F002FEC000F002FE8000F002FE8036
:100A700000F000FE0000F000FE0000F002FE80002A
:100A8000F006FEC000F006FEC000F00ECEC000F082
:100A90000EC6E000F00E82E000F00E02E000F00E64
:100AA00000E000F00E00E000F00E00E000F00E00AC
:100AB000E000F00E00E000F00E00E000F00E02E0BA
:100AC00000F00E82E000F00EC6E000F00EFEC00066
:100AD000F006FEC000F006FE8000F002FE8000F08E
:100AE00000FE00000000FC0000000000000000000C
:100AF00000000000000000000000000000000000F6
:100B000000000000000000000000000000000000E5
:100B100000000000000000000000000000000000D5
:100B200000000000000000000000000000000000C5
:100B300000000000000000000000000000000000B5
:100B400000000000000000000000000000F00EFEA9
:100B5000C000F00EFEC000F00EFEC002F00EFEC09F
:100B600002F00EFEC006F00EFEC00EF00006C00E33
:100B7000F00006C01EF00006C01EF00006800EF059
:100B8000000E800EF0000E800CF0000E0000F00051
:100B90000E0000F0001E0000E0001E0000E0001E3D
:100BA0000000E0001E0000E0003E0000E0003E000B
:100BB00000E0003C0000E0003C0000E0007C0000A1
:100BC000E0007C0000E000780000E000780000E039
:100BD00000F80000E000F80000E000F00000E00095
:100BE000F00000E000F00000E000F00000E000E0B5
:100BF0000000E000E00000E002E00000E002E000B1
:100C000000E002C00000E002C00000E006C00000FA
:100C1000E006C00000E006800000E006800000E082
:100C2000068000000000000000000000000000003E
:100C300000000000000000000000000000000000B4
:100C400000000000000000000000000000000000A4
:100C50000000000000000000000000000000000094
:100C60000000000000000000000000000000000084
:100C70000000000000000000000000000000000074
:100C800000000000000000000000000000F0001E56
:100C90000000F0003E0000F0003E0002F0007C008A
:100CA00002F0007C0006F000F8000EF000F8000EE4
:100CB000F000F8001EF000F0001EF002F0000EF050
:100CC00002E0000EF002E0000CF006C00000F006AA
:100CD000C00000F006C00000E006800000E00EFE4C
:100CE0000000E00EFE0000E00EFE0000E00EFE80C0
:100CF00000E01EFE8000E01EFE8000E01ECE8000B0
:100D0000E01E86C000E01E06C000E01E02C000E03B
:100D10001E02C000E01E02C000E01E02C000E01E75
:100D200002C000E01E02C000E01E02C000E01E0281
:100D3000C000E01E06C000E01E068000E01E068027
:100D400000E01E0E8000E00E9E8000E00EFE80009F
:100D5000E00EFE0000E006FE0000E006FE0000E0FF
:100D600002FC00000000F80000000000000000008D
:100D70000000000000000000000000000000000073
:100D80000000000000000000000000000000000063
:100D90000000000000000000000000000000000053
:100DA0000000000000000000000000000000000043
:100DB0000000000000000000000000000000000033
:100DC00000000000000000000000000000F006FE2F
:100DD0008000F006FE8000F006FE8002F006FE8035
:100DE00002F006FE8006F006FE800EF00680000E81
:100DF000F00600001EF00600001EF00600000EF0D7
:100E00000600000EF00600000CF006000000F006E0
:100E1000000000F006000000E00E700000E00EFC94
:100E20000000E00EFE0000E00EFE0000E00EFE00FE
:100E300000E00EFE0000E00EFE8000E00E8E80005E
:100E4000E0060E8000E002068000E00006C000E040
:100E50000006C000E00002C000E00002C000E000A8
:100E600002C000E00006C000E00006C000E000068E
:100E70008000E00C068000E01C0E8000E01E0E806A
:100E800000E03E1E8000E03EBE8000E03EFE00002E
:100E9000E01EFE0000E00EFE0000E00EFE0000E09E
:100EA00006FC00000000F000000000000000000050
:100EB0000000000000000000000000000000000032
:100EC0000000000000000000000000000000000022
:100ED0000000000000000000000000000000000012
:100EE0000000000000000000000000000000000002
:100EF00000000000000000000000000000000000F2
:100F000000000000000000000000000000F0001ED3
:100F10000000F0001E0000F0001E0002F0003E0085
:100F200002F0003E0006F0003C000EF0007C000ED7
:100F3000F0007C001EF00078001EF000F8000EF0BB
:100F400000FE000EF000F6000CF000F60000F000CD
:100F5000FE0000F000EE0000E002EE0000E002EE15
:100F60000000E002CE0000E006CE0000E006CE0069
:100F700000E006CE0000E00E8E0000E00E8E0000C5
:100F8000E00E8E0000E01E0E0000E01E0E0000E0ED
:100F90001E0E0000E01EFEC000E01EFEC000E01EAF
:100FA000FEC000E01EFEC000E01EFEC000E01EFE0F
:100FB000C000E0000E0000E0000E0000E0000E00A7
:100FC00000E0000E0000E0000E0000E0000E000057
:100FD000E0000E0000E0000E0000E0000E0000E067
:100FE000000E0000000000000000000000000000F3
:100FF00000000000000000000000000000000000F1
:1010000000000000000000000000000000000000E0
:1010100000000000000000000000000000000000D0
:1010200000000000000000000000000000000000C0
:1010300000000000000000000000000000000000B0
:1010400000000000000000000000000000F000FCB4
:101050000000F002FE0000F006FE0002F006FE00B6
:1010600002F00EFE8006F00EFE800EF00E8E800E58
:10107000F00E06801EF00E06801EF00606800EF0B2
:101080000606800EF00006800CF000068000F000DE
:10109000068000F000068000E0000E8000E0001EE8
:1010A0008000E0003E0000E002FE0000E002FE00E2
:1010B00000E002FE0000E002FE0000E002FE000090
:1010C000E0007E0000E0001E8000E0000E8000E0F6
:1010D00000068000E000068000E000068000E000DE
:1010E000068000E000068000E000068000E00006C8
:1010F0008000E01C068000E01C068000E03E0E80C0
:1011000000E03E0E8000E03E9E8000E01EFE0000FB
:10111000E01EFE0000E00EFE0000E006FE0000E023
:1011200002FC00000000F0000000000000000000D1
:1011300000000000000000000000000000000000AF
:10114000000000000000000000000000000000009F
:10115000000000000000000000000000000000008F
:10116000000000000000000000000000000000007F
:10117000000000000000000000000000000000006F
:1011800000000000000000000000000000F000FE71
:101190000000F000FE0000F002FE0002F002FE80FF
:1011A00002F006FE8006F006FEC00EF00ECEC00E67
:1011B000F00E86C01EF00E82C01EF00E02C00EF0B1
:1011C0001E02C00EF01E02C00CF00E02C000F000A5
:1011D00002C000F00002C000E00006C000E000060F
:1011E000C000E00006C000E0000E8000E0000E80BD
:1011F00000E0000E8000E0001E8000E0001E000005
:10120000E0003E0000E0003E0000E0007E0000E064
:10121000007C0000E000FC0000E000F80000E000BE
:10122000F80000E000F00000E002F00000E002E062
:101230000000E006E00000E006C00000E00EC00094
:1012400000E01E800000E01EFE8000E01EFE800028
:10125000E01EFE8000E01EFE8000E01EFE8000E03A
:101260001EFE8000000000000000000000000000E2
:10127000000000000000000000000000000000006E
:10128000000000000000000000000000000000005E
:10129000000000000000000000000000000000004E
:1012A000000000000000000000000000000000003E
:1012B000000000000000000000000000000000002E
:1012C00000000000000000000000000000F0003CF2
:1012D0000000F0003C0000F0007C0002F000FC0088
:1012E00002F000FC0006F000FC000EF002FC000E14
:1012F000F002FC001EF006FC001EF006FC000EF0E2
:1013000002FC000EF002BC000CF0023C0000F000F9
:101310003C0000F0003C0000E000380000E00078F5
:101320000000E000780000E000780000E0007800B5
:1013300000E000780000E000780000E000780000A5
:10134000E000780000E000780000E000780000E0B5
:1013500000780000E000780000E000780000E00085
:10136000780000E000780000E000780000E00078FD
:101370000000E000780000E000780000E000780065
:1013800000E000780000E000780000E00078000055
:10139000E000780000E000780000E000780000E065
:1013A00000780000000000000000000000000000C5
:1013B000000000000000000000000000000000002D
:1013C000000000000000000000000000000000001D
:1013D000000000000000000000000000000000000D
:1013E00000000000000000000000000000000000FD
:1013F00000000000000000000000000000000000ED
:1014000000000000000000000000000000F000FEEE
:101410000000F000FE0000F002FE0002F002FE807C
:1014200002F006FE8006F006EE800EF00EC6C00E3C
:10143000F00E86C01EF00E86C01EF00E02C00EF02A
:101440000E02C00EF01E02C00CF01E02C000F01E04
:1014500002C000F01E02E000E01E02E000E01E00FC
:10146000E000E01E00E000E01E00E000E01E00E002
:1014700000E01E00E000E01E00E000E01E00E000D2
:10148000E01E02E000E01E02C000E01E02C000E01C
:101490001E02C000E01E02C000E01E02C000E01EEE
:1014A00002C000E01E02C000E01E02C000E01E06F6
:1014B000C000E01E06C000E01E068000E01E0E8098
:1014C00000E00E0E8000E00E9E8000E00EFE0000A8
:1014D000E00EFE0000E006FE0000E006FE0000E078
:1014E00002FC00000000F800000000000000000006
:1014F00000000000000000000000000000000000EC
:1015000000000000000000000000000000000000DB
:1015100000000000000000000000000000000000CB
:1015200000000000000000000000000000000000BB
:1015300000000000000000000000000000000000AB
:10154000000000000000000000000000000000009B
:10155000000000FE8000000EFEF000001EFEF800FD
:10156000007EFEFC0000FEFEFE0000FEFEFE00000F
:10157000FEC6FE0002FE00FE8002FE007E8006FC2B
:10158000007E8006FC003EC006F8003EC006F80063
:101590003EC006F8003EC006F0003EC006F0003E29
:1015A000C006F8003EC006F8007E8006F8007E8087
:1015B00006FC00FE8006FC00FE8006FE06FE8002A1
:1015C000FEDEFE0002FEFEFE0000FEFEFE0000FE4D
:1015D000FEFE00007EFEFE00001EFEFE000002F287
:1015E000FC00000002FC00000006F800000006F805
:1015F0000000000EF80000000EF00000001EF000D9
:1016000000001EE00000003EE00000007EC0000080
:10161000007E80000000FE80000000FE0000000050
:10162000FE00000002FE00000002FC0000000000BE
:1016300000000000000000000000000000000000AA
:10164000000000000000000000000000000000009A
:10165000000000000000000000000000000000008A
:10166000000000000000000000000000000000007A
:10167000000000000000000000000000000000006A
:10168000000000000000000000000000000000005A
:10169000000000FE8000001EFEF800003EFEFC0080
:1016A00000FEFEFE0000FEFEFE0000FEFEFE8002CA
:1016B000FE80FE8002FE00FE8002FC007EC002FC76
:1016C000003EC002F8003EC002F8003EC002FC002E
:1016D0007EC002FC007E8002FE00FE8002FE00FE54
:1016E0008002FE82FE0000FEEEFE0000FEFEFE0016
:1016F00000FEFEF800003EFEF000001EFEE00000CE
:101700007EFEF00000FEFEFC0000FEFEFE0002FE7B
:10171000DEFE0006FE06FE800EFE02FE800EF800D3
:10172000FE800EF0007EC01EF0007EC01EE0003E77
:10173000C01EE0003EC01EE0003EC01EE0003EC0F5
:101740001EF0007EC00EF8007E800EFC00FE800EB3
:10175000FE02FE8006FEFEFE0006FEFEFE0002FE0B
:10176000FEFC0000FEFEF800003EFEE0000006FE6B
:101770000000000000000000000000000000000069
:101780000000000000000000000000000000000059
:101790000000000000000000000000000000000049
:1017A0000000000000000000000000000000000039
:1017B0000000000000000000000000000000000029
:1017C0000000000000000000000000000000000019
:1017D00000000000000000FEFEFEE000FEFEFEE055
:1017E00000FEFEFEE000FEFEFEC000FEFEFEC000AB
:1017F000FEFEFEC00000007EC00000007E800000F3
:1018000000FE80000000FE00000000FE000000005E
:10181000FE00000002FE00000002FC00000006FCCA
:1018200000000006F80000000EF80000000EF000B6
:1018300000001EF00000001EE00000003EE000007E
:10184000003EC00000007EC00000007E800000005E
:10185000FE80000000FE00000000FE00000000FE10
:1018600000000002FE00000002FC00000006FC0078
:10187000000006F80000000EF80000000EF0000066
:10188000001EF00000001EE00000003EE00000002E
:101890003EC00000007EC00000007E80000000FE10
:1018A00080000000FE00000000FE000000000000BC
:1018B0000000000000000000000000000000000028
:1018C0000000000000000000000000000000000018
:1018D0000000000000000000000000000000000008
:1018E00000000000000000000000000000000000F8
:1018F00000000000000000000000000000000000E8
:1019000000000000000000000000000000000000D7
:1019100000000000000000001EF00000003EF0008B
:1019200000007EE0000000FEC0000000FE8000001D
:1019300002FE00000002FE00000006FE0000000E95
:10194000FC0000001EF80000003EF00000003EE039
:101950000000007EC00000007EC0000000FE80008D
:101960000000FE3E000000FEFEF00000FEFEF8005B
:1019700002FEFEFE0002FEFEFE0006FEFEFE000669
:10198000FEF6FE8006FE80FE8006FE00FE8006F863
:10199000007E800EF8007EC00EF0003EC00EF0000B
:1019A0003EC00EF0003EC00EF0003EC00EF0003E05
:1019B000C00EF0007E8006F8007E8006F8007E8073
:1019C00006F800FE8006FC00FE8002FE00FE00021B
:1019D000FE06FE0000FEFEFE0000FEFEFC0000FE15
:1019E000FEF800007EFEF000001EFEC0000002FEB9
:1019F00000000000000000000000000000000000E7
:101A000000000000000000000000000000000000D6
:101A100000000000000000000000000000000000C6
:101A200000000000000000000000000000000000B6
:101A300000000000000000000000000000000000A6
:101A40000000000000000000000000000000000096
:101A500000000000000000FEFEFE8000FEFEFE8092
:101A600000FEFEFE8000FEFEFE8000FEFEFE800008
:101A7000FEFEFE8000FE00000000FE00000000FEF2
:101A800000000000FE00000000FE00000000FE005C
:101A9000000000FE00000000FE00000000FE00004C
:101AA0000000FEFE000000FEFEE00000FEFEF8006A
:101AB00000FEFEFC0000FEFEFE0000FEFEFE00003A
:101AC000FEDEFE0000FE02FE00007C00FE80000044
:101AD00000FE800000007E800000007E800000008C
:101AE0007E800000007E800000007E800000007E7E
:101AF000800000007E80000000FE80068000FE80E6
:101B000006C000FE000EE002FE001EF806FE001EEB
:101B1000FE1EFE001EFEFEFC000EFEFEF80006FE8F
:101B2000FEF00000FEFEE000007EFE8000000EFCE5
:101B300000000000000000000000000000000000A5
:101B40000000000000000000000000000000000095
:101B50000000000000000000000000000000000085
:101B60000000000000000000000000000000000075
:101B70000000000000000000000000000000000065
:101B80000000000000000000000000000000000055
:101B900000000000000000000EF80000000EF80039
:101BA00000001EF00000003EE00000003EE00000EB
:101BB000007EC00000007E80000000FE800000006B
:101BC000FE00000000FE00000002FEFE000006FC19
:101BD000FE000006FCFE00000EF8FE00001EF0FEF7
:101BE00000001EF0FE00003EE0FC00003EE0FC00B5
:101BF000007EC0FC0000FE80FC0000FE80FC0000B7
:101C0000FE00FC0002FE00FC0002FE00FC0006FCE0
:101C100000FC0006FC00FC000EF800FC000EFEFEBE
:101C2000FEE00EFEFEFEE00EFEFEFEC01EFEFEFE0E
:101C3000C01EFEFEFEC01EFEFEFEC0000002FC0036
:101C4000000002F800000002F800000002F80000A6
:101C50000002F800000002F800000002F800000096
:101C600002F800000002F800000002F80000000086
:101C70000000000000000000000000000000000064
:101C80000000000000000000000000000000000054
:101C90000000000000000000000000000000000044
:101CA0000000000000000000000000000000000034
:101CB0000000000000000000000000000000000024
:101CC0000000000000000000000000000000000014
:101CD000000000FE0000001EFEE000003EFEF800D6
:101CE00000FEFEFC0000FEFEFE0002FEFEFE000600
:101CF000FEC6FE0006FE00FE0002FC00FE0000F82C
:101D000000FE8000E0007E800000007E8000000079
:101D10007E80000000FE00000000FE00000000FECB
:101D200000000002FE00000006FE0000003EFC0075
:101D3000003EFEFC00003EFEF000003EFEE0000023
:101D40003EFEF800003EFEFC000000FEFE0000002B
:101D50000EFE00000002FE00000000FE0000000079
:101D6000FE00000000FE800000007E800000007E7B
:101D7000800000007E800280007E8006C000FE00A1
:101D80000EE000FE001EF000FE001EF802FE001E27
:101D9000FE1EFE000EFEFEFE0006FEFEFC0002FE23
:101DA000FEF80000FEFEE000007EFEC000000EFE19
:101DB0000000000000000000000000000000000023
:101DC0000000000000000000000000000000000013
:101DD0000000000000000000000000000000000003
:101DE00000000000000000000000000000000000F3
:101DF00000000000000000000000000000000000E3
:101E000000000000000000000000000000000000D2
:101E1000000000FE80000006FEF000001EFEFC0038
:101E2000003EFEFE00007EFEFE0000FEFEFE000004
:101E3000FEE6FE8002FE00FE8002FE007E8006FCC2
:101E4000007EC006F8003EC006F8003EC002F0006A
:101E50003EC000F0003EC00000003EC00000007E1A
:101E6000C00000007E80000000FE80000000FE80B8
:101E7000000000FE00000002FE00000006FE000060
:101E8000000EFC0000001EFC0000003EF8000000F8
:101E90007EF0000000FEE0000000FEC0000002FE38
:101EA00080000006FE0000000EFE0000001EFC0088
:101EB00000003EF80000007EF0000000FEE00000A0
:101EC00000FEC0000002FE80000006FE0000000EC2
:101ED000FEFEFE801EFEFEFE801EFEFEFE001EFEBC
:101EE000FEFE001EFEFEFE001EFEFEFE00000000C6
:101EF00000000000000000000000000000000000E2
:101F000000000000000000000000000000000000D1
:101F100000000000000000000000000000000000C1
:101F200000000000000000000000000000000000B1
:101F300000000000000000000000000000000000A1
:101F40000000000000000000000000000000000091
:101F500000000000000000003E800000007E8000C5
:101F60000000FE80000000FE80000006FE800000F1
:101F70000EFE8000003EFE8000007EFE8000007E9F
:101F8000FE8000003EFE8000003EBE8000001E7EFF
:101F9000800000007E800000007E800000007E80C7
:101FA0000000007E800000007E800000007E800037
:101FB00000007E000000007E000000007E000000A7
:101FC000007E000000007E000000007E0000000097
:101FD0007E000000007E000000007E000000007E09
:101FE000000000007E000000007E00000000FE00F7
:101FF000000000FE00000000FE00000000FE0000E7
:102000000000FE00000000FE00000000FE000000D6
:1020100000FE00000000FE00000000FE00000000C6
:10202000FE00000000FE00000000FE0000000000B6
:1020300000000000000000000000000000000000A0
:102040000000000000000000000000000000000090
:102050000000000000000000000000000000000080
:102060000000000000000000000000000000000070
:102070000000000000000000000000000000000060
:102080000000000000000000000000000000000050
:10209000000000FE80000006FEF000001EFEF800BA
:1020A000003EFEFC00007EFEFE0000FEFEFE000084
:1020B000FEC0FE8000FE80FE8002FE007EC002FEAA
:1020C000007EC006FC003EC006FC003EC006F800D4
:1020D0003EE006F8001EE00EF8001EE00EF0001EC6
:1020E000E00EF0001EE00EF0001EE00EF0001EE01C
:1020F0000EF0001EE01EE0001EE01EE0001EE01ECE
:10210000E0001EE01EE0001EE01EE0001EE01EE0FB
:10211000001EE01EE0001EE01EE0001EE01EE000CB
:102120003EC00EE0003EC00EF0003EC00EF0003E8D
:10213000C00EF0007EC00EF0007E800EF800FE8023
:1021400006F800FE8006FC00FE0006FE02FE00020D
:10215000FE0EFE0002FEFEFC0000FEFEF80000FE89
:10216000FEF000007EFEE000001EFEC0000006FE45
:10217000000000000000000000000000000000005F
:10218000000000000000000000000000000000004F
:10219000000000000000000000000000000000003F
:1021A00000000200080E0000030401000B00000004
:1021B0000000000000000000000000000004080211
:1021C00001104080401020408040800802040180BF
:1021D0004020100201108010204040040404040438
:1021E00003040502020202040302020202060606BA
:1021F0000606060404020202040000000023002672
:102200000029002C002F0000000000250028002BD2
:10221000002E00310000000000240027002A002DBD
:10222000003000080B000202020100090400000156
:10223000020200000524001001052401010104240C
:102240000206052406000107058103100040090469
:102250000100020A00000007050202400000070515
:10226000830240000000C18081C11201000202000F
:1022700000404123368000010102000112010002EA
:1022800000000040412336800001010200011803D4
:10229000410072006400750069006E006F0020004C
:1022A0004C004C00430022034100720064007500A2
:1022B00069006E006F0020004C0065006F006E002A
:1022C0006100720064006F00040309040000000054
:1022D000000000002A2B2800000000000000000081
:1022E0000000000000000000000000002C9EB4A0D0
:1022F000A1A2A434A6A7A5AE362D3738271E1F20CD
:10230000212223242526B333B62EB7B89F84858691
:102310008788898A8B8C8D8E8F90919293949596D5
:102320009798999A9B9C9D2F3130A3AD3504050653
:102330000708090A0B0C0D0E0F10111213141516B5
:102340001718191A1B1C1DAFB1B0B5000904020003
:1023500001030000000921010100012265000705B9
:10236000840340000105010902A1010901A10085C2
:10237000010509190129031500250195037501813E
:1023800002950175058103050109300931093815E8
:1023900081257F750895038106C0C005010906A146
:1023A000018502050719E029E7150025017501954A
:1023B00008810295017508810395067508150025A9
:1023C000650507190029658100C01914311B152006
:1023D0000029411B11241FBECFEFDAE0DEBFCDBFC5
:1023E00014E0A0E0B1E0E2EEF8E502C005900D9245
:1023F000AA38B107D9F715E0AAE8B4E001C01D92E8
:10240000A335B107E1F713E2C2EDD3E204C022978E
:10241000FE010E94512CCA3CD107C9F70E942C2012
:102420000C945B2B0C940000FC017783668355832E
:102430004483318720870895FC01808191810C9429
:10244000AC1D0F931F93CF93DF931F92CDB7DEB7D1
:102450008C01262F61E0FC01848129830E947F1E6C
:10246000C8010E941C12298141E0F8016681808523
:102470000E94DE1E60E0F80184810F90DF91CF9111
:102480001F910F910C947F1EEF92FF920F931F9359
:10249000CF93DF93EC018B017B018FE0E822FF24D7
:1024A00068EF70E0CE010E942112B801607F7727AB
:1024B000CE010E942112B70184E0660F771F8A9532
:1024C000E1F7CE01DF91CF911F910F91FF90EF9037
:1024D0000C942112EF92FF920F931F93CF93DF93EF
:1024E000EC018B017B018FE0E822FF246AEF70E0B2
:1024F000CE010E942112B801607F7727CE010E9491
:102500002112B70194E0660F771F9A95E1F7CE018B
:10251000DF91CF911F910F91FF90EF900C942112BA
:10252000CF93DF93EC0161E08C810E94461E61E055
:102530008E810E94461E61E088850E94461E60E0F2
:102540008C810E947F1ECE010E941C1260E370E00D
:10255000CE010E9444126CE070E0CE010E94441251
:1025600061E070E0CE010E94441266E070E0CE01AE
:10257000DF91CF910C944412CF93DF93EC0160E391
:1025800070E00E94441261E070E0CE01DF91CF91D3
:102590000C944412EF92FF920F931F93CF93DF930B
:1025A0007C01EB018A0160E170E00E94C32BFC0119
:1025B00004960997A8F49701F7FE02C0215F3F4FE8
:1025C000A4E035952795AA95E1F785E0829FB001B3
:1025D000839F700D11246E0F7F1F6C0F7D1F33C002
:1025E000DF011597A530B105A8F49701F7FE02C0E9
:1025F000215F3F4F74E0359527957A95E1F785E0A7
:10260000829FB001839F700D11246A0F7B1F600FA2
:10261000711F19C0DF011A97A530B105D8F4A701C1
:10262000F7FE02C0415F5F4F64E0559547956A959C
:10263000E1F785E0849FB001859F700D11246A0F3A
:102640007B1F620F731F41E050E080E090E00E942A
:102650005E2B03C03F97359718F08091000001C0B2
:1026600080E0DF91CF911F910F91FF90EF9008953F
:102670004F925F926F927F928F929F92AF92BF9292
:10268000CF92DF92EF92FF920F931F93CF93DF933E
:10269000EC016B015A014901412C512C00E010E082
:1026A0003801003211053CF420E8620E711C80E80C
:1026B000E82EF12C06C080E6680E711CB8E8EB2EFF
:1026C000F12C64E370E0CE010E944412B301CE010C
:1026D0000E944412B701CE010E94441260E370E0F0
:1026E000CE010E944412C201320120E1620E711C2F
:1026F0007C012FEFE21AF20A9401A501B6010E94B3
:10270000CA12682F70E0CE010E946A12E614F70424
:1027100011F0C701EDCF0F5F1F4F0034110511F00D
:102720002301BECF64E370E0CE010E94441266E351
:1027300070E0CE01DF91CF911F910F91FF90EF904C
:10274000DF90CF90BF90AF909F908F907F906F90D1
:102750005F904F900C944412AF92BF92CF92DF9251
:10276000EF92FF920F931F93CF93DF93EC015B01E6
:1027700000E010E06801003211053CF480E8C80E6A
:10278000D11C20E8E22EF12C06C0E0E6CE0ED11CD2
:1027900098E8E92EF12C64E370E0CE010E94441227
:1027A000B601CE010E944412B701CE010E9444122C
:1027B00060E370E0CE010E94441282E090E00E944B
:1027C0000D296C01E12CF12CB7016A0D7B1D41E054
:1027D00050E0C6010E945E2BF60160817181CE013E
:1027E0000E946A12FFEFEF1AFF0A80E1E816F10477
:1027F00059F70F5F1F4FE0E1AE0EB11C0034110519
:1028000009F0B8CFC6010E94A52964E370E0CE01AB
:102810000E94441266E370E0CE01DF91CF911F91D8
:102820000F91FF90EF90DF90CF90BF90AF900C94FE
:10283000441280E590E090938D0480938C049093F3
:102840008B0480938A0408958EBD0DB407FEFDCFDE
:102850008EB5089581E00E945F2580E00C94682584
:102860000F931F93CF93DF931F92CDB7DEB78C01E9
:10287000862FF801648761E049830E94461E61E06B
:10288000F80184850E947F1E4981F801458761E037
:10289000842F0E94461E60E0F80185850E947F1EFD
:1028A000C8010F90DF91CF911F910F910C942A14C2
:1028B000EF92FF921F93CF93DF931F92CDB7DEB7B6
:1028C0007C01162F60E0FC01848549830E947F1EF5
:1028D000812F8E770E9424144981842F0E94241412
:1028E00061E0F70184850F90DF91CF911F91FF90F8
:1028F000EF900C947F1ECF92DF92EF92FF920F9396
:102900001F93CF93DF9300D0CDB7DEB78C01E62EB7
:10291000F42E60E0FC01848529833A830E947F1EA7
:102920008E2D8E770E9424142981E22EC22E3A81A8
:10293000D32E8C2D8E198F1530F4F60181916F01F5
:102940000E942414F6CF61E0F80184850F900F9067
:10295000DF91CF911F910F91FF90EF90DF90CF907B
:102960000C947F1E1F93CF93DF93EC01162F60E032
:102970008C850E947F1E812F8E7780680E94241490
:1029800080E00E942414182F61E08C850E947F1E35
:10299000812FDF91CF911F9108957F928F929F9207
:1029A000AF92BF92CF92DF92EF92FF920F931F935D
:1029B000CF93DF936C01842EE901442309F453C0C3
:1029C000162F1E77106860E0FC0184850E947F1E30
:1029D0008A94812F0E9424147C2EEC2EFD2EAA2492
:1029E000A394B12C8E2D8719881528F581111AC052
:1029F0000023C1F0802F912C883048F49501082ED7
:102A000001C0220F0A94EAF7922A8F5FF5CF812F37
:102A10000E942414992D9095288192238921982B26
:102A2000988305C0812F0E942414F7018083FFEF53
:102A3000EF1AFF0AD7CFC80DD11D80E00E942414E1
:102A4000888361E0F6018485DF91CF911F910F911A
:102A5000FF90EF90DF90CF90BF90AF909F908F90BE
:102A60007F900C947F1EDF91CF911F910F91FF906B
:102A7000EF90DF90CF90BF90AF909F908F907F901E
:102A80000895EF92FF921F93CF93DF931F92CDB7DC
:102A9000DEB77C01162F49830E94B2144981482B6E
:102AA000612FC7010F90DF91CF911F91FF90EF90A1
:102AB0000C945814EF92FF921F93CF93DF931F92C1
:102AC000CDB7DEB77C01162F49830E94B21449812D
:102AD00040954823612FC7010F90DF91CF911F913F
:102AE000FF90EF900C945814DF92EF92FF920F93A7
:102AF0001F93CF93DF93EC018B01D42E790140E03B
:102B000062E00E94581444E06AE0CE010E9458142A
:102B100040E864E1CE010E94411598014D2D62E12B
:102B2000CE010E947B1443E062E0CE010E94581463
:102B300008E813E16AE0CE010E94B21482FD07C0EA
:102B40000150110901151105A9F784E012C040E0F8
:102B500062E0CE010E94581464E4CE010E94B214D7
:102B6000F701808362E4CE010E94B214F7018183F1
:102B700081E0DF91CF911F910F91FF90EF90DF9057
:102B80000895CF93DF93EC014FE062E00E94581468
:102B900062E370E080E090E00E94861D62E0CE017A
:102BA0000E94B21484FDFACFDF91CF910895CF93A4
:102BB000DF93EC0168E20E94B214982F9370933077
:102BC00041F0482F436068E2CE01DF91CF910C9431
:102BD0005814DF91CF910895CF93DF93EC018D8549
:102BE0000E94B51E892B59F461E08D850E947F1EDD
:102BF00062E370E080E090E00E94861D03C0CE0199
:102C00000E94C11540E864E5CE010E94581449EACB
:102C100066E5CE010E94581443E068E5CE010E94AB
:102C2000581448EE6AE5CE010E94581440E46AE266
:102C3000CE010E9458144DE362E2CE010E94581466
:102C4000CE01DF91CF910C94D7152F923F925F92D6
:102C50006F927F928F929F92AF92BF92CF92DF92AC
:102C6000EF92FF920F931F93CF93DF9300D000D08A
:102C7000CDB7DEB73C01962E542E302E082DA11470
:102C8000B10419F0F501408101C040E0242EF0E1CB
:102C90000F9F200C112440E062E0C3012B833C8392
:102CA0000E9458144FE768E0C3010E94581440E89E
:102CB00064E1C3010E9441152B813C81432D62E1F7
:102CC000C3010E947B14422D6AE1C3010E94581483
:102CD000492D62E0C3010E9458148CE0981205C08F
:102CE00040E86AE1C3010E94411590ED292E97E06A
:102CF000392E68E0C3010E94B214982F952149F43F
:102D000080FD65C0E1E02E1A31082114310489F7F5
:102D10005EC06CE0C3010E94B214982E837109F06A
:102D200058C0E114F104F1F0C114D104D9F064E108
:102D3000C3010E94B214482FF6018081841708F461
:102D40004AC04083970162E1C3010E94CD1468E14B
:102D5000C3010E94B214182F1770A114B10411F00E
:102D6000F501108393FC39C0E114F104C1F1C114E1
:102D7000D104A9F1888D882391F1F6014081413079
:102D800019F4143019F421C0423010F488E028C03E
:102D90001111FCCF42509E012F5F3F4FB701C3017D
:102DA0000E9474158130E1F4F6018081E80EF11C77
:102DB000F7013297908189819813E8CFF701319715
:102DC00090818A819813E2CF0AC089E009C084E02B
:102DD00007C082E005C085E003C083E001C081E058
:102DE0000F900F900F900F90DF91CF911F910F9147
:102DF000FF90EF90DF90CF90BF90AF909F908F901B
:102E00007F906F905F903F902F9008958F92AF9238
:102E1000BF92CF92DF92EF92FF920F931F93AF92E8
:102E20008C2C570168017901042F9B0140E36CE071
:102E30000E9425160F901F910F91FF90EF90DF9049
:102E4000CF90BF90AF908F9008954F925F926F9206
:102E50007F928F929F92AF92CF92EF92FF920F93B9
:102E60001F93CF93DF9300D0CDB7DEB73C016A83C9
:102E70002A0149014115510531F1F9018081823062
:102E800010F140E86CE1C3010E945A1587E0898384
:102E9000A12CC12CCE0101967C018401920141E05C
:102EA000BE016E5F7F4FC3010E940617813061F43F
:102EB000F4018081823011F082E006C089818111A5
:102EC000FBCF81E001C085E00F900F90DF91CF91A3
:102ED0001F910F91FF90EF90CF90AF909F908F90A8
:102EE0007F906F905F904F9008959A01AB0166E2DA
:102EF0000C9425172F923F924F925F926F927F9280
:102F00008F929F92AF92BF92CF92DF92EF92FF92F9
:102F10000F931F93CF93DF93CDB7DEB72D970FB6E7
:102F2000F894DEBF0FBECDBF3C012B01342E20E54F
:102F3000241708F40BC140E86CE10E945A15BB2429
:102F4000B39432E0B31691F043E0B416E1F081E0BF
:102F5000B81200C183E989833320D1F041E0D20166
:102F60008C91853008F440E0D12C17C085E9898325
:102F7000332081F041E0F2018081883008F440E0A4
:102F800073E0D72E0AC087E9898366E0D62E04C095
:102F9000D12C02C053E0D52E40E0532DF8EFDF9E38
:102FA000500D112457FD50E0442321F088E88B8315
:102FB00073E001C072E091E0852F877009F490E022
:102FC000852F859585958595890F21F4442311F1E9
:102FD000585F20C0442311F063E001C064E086170D
:102FE00008F4682F80E090E092012D0D311DE72F4D
:102FF000E80FA1E0B0E0AC0FBD1FAE0FB11DFD01A9
:10300000D901A80FB91F1196AC91A083019686171C
:1030100070F3DCCF43E0242E503204F1B0E7BA83E2
:103020008C819B8189279D8189279E8189278F8318
:103030009E01285F3F4F47E0BE016F5F7F4FC30196
:103040005D870E9474155D85813009F0CEC01B86B6
:103050002A86FE0137964F0179E01EC0952F9770A2
:103060009B87252F25952595259582E0820F392F61
:10307000F0E18F9F300D11243A8371E0911101C06E
:1030800070E0780F88248394912C8C0E9D1E880EFE
:10309000911C87E0821B8A87CB844C2D4295407F10
:1030A0004C0D6AE1C3015D877C870E945814A12CF6
:1030B0009E01255F3F4F79018E01065F1F4F9401EE
:1030C0007C85472FBE016F5F7F4FC3010E940617AB
:1030D0005D858330A1F56CE1C3010E94B2145D856A
:1030E00085FD36C0482F4F7109F440E2842F90E0EF
:1030F000252F332727FD3095281739075CF5542FE6
:10310000019787709927242F2595259525952F5F61
:1031100031E0811101C030E0230FE1E0F0E0EC0F7D
:10312000FD1FE20FF11DA1E0B0E002C0AA0FBB1F1E
:103130008A95E2F7CD019081982B90836DCF8130F5
:1031400009F053C0503244F450E268CF87E04DC0DC
:1031500083E04BC086E049C08B81883819F052E08B
:1031600044E002C053E043E080E090E092012D0D86
:10317000311DF901E80FF91F652F680FA1E0B0E0DC
:10318000AC0FBD1FA60FB11D6C9161830196841712
:1031900080F38A85833031F58B85811123C09E01B0
:1031A0002D5F3F4F41E0B401C3010E94741581308F
:1031B000E1F49B81F4018181981316C09C81828186
:1031C000981312C0808182FF02C0B394BACED2019C
:1031D0001B968C931B978B2D880F8B0D8F5F8C9379
:1031E00081E003C082E001C088E02D960FB6F8941C
:1031F000DEBF0FBECDBFDF91CF911F910F91FF902A
:10320000EF90DF90CF90BF90AF909F908F907F9086
:103210006F905F904F903F902F9008958F929F9264
:10322000AF92CF92EF92FF920F931F93CF93DF93C2
:1032300000D000D0CDB7DEB74C0180E589831A827B
:103240009E012D5F3F4F42E0BE016F5F7F4FC40183
:103250000E9474158130B1F4A12CC12CE12CF12C09
:1032600000E010E020E030E044E0BE016F5F7F4FFF
:10327000C4010E940617843021F0813019F482E0E5
:1032800001C081E00F900F900F900F90DF91CF91D0
:103290001F910F91FF90EF90CF90AF909F908F90E4
:1032A00008958F92AF92BF92CF92DF92EF92FF92EA
:1032B0000F931F93CF93DF93CDB7DEB72C970FB645
:1032C000F894DEBF0FBECDBFF80169834A83890140
:1032D0009E012D5F3F4FAE01475F5F4FD8016D915B
:1032E0008D01D9016D939D01A417B507B9F721810F
:1032F000298722812A8723812B8724812C871F926B
:10330000812CA12CB12CC12CD12CE12CF12C0CE066
:103310009E012F5F3F4F40E16EE00E9425160F9007
:103320002C960FB6F894DEBF0FBECDBFDF91CF91C4
:103330001F910F91FF90EF90DF90CF90BF90AF90D3
:103340008F90089548E060E10C945A158F929F92F7
:10335000AF92CF92EF92FF920F931F93CF93DF9391
:103360004C01EA0189012097E9F0F901808182315D
:10337000C8F080E3888369839A012E5F3F4F42E063
:10338000BE01C4010E947415813069F4AA24A3947B
:10339000C12CE12CF12C9E0144E0BE01C4010E942D
:1033A000061701C085E0DF91CF911F910F91FF902B
:1033B000EF90CF90AF909F908F90089561506930BB
:1033C00048F4E62FF0E0EE0FFF1FE15EFB4F808137
:1033D0009181089584E191E00895CF93DF9300D027
:1033E0001F92CDB7DEB722E02B83AE014D5F5F4F5A
:1033F000BE016F5F7F4F0E947517813031F091E001
:10340000833009F090E0892F01C081E00F900F9088
:103410000F90DF91CF91089540E0BC010E947A1790
:1034200091E0813009F090E0892F0895CF93DF93E8
:1034300081EA94E00E947E27EC01CE38D1056CF43D
:10344000BE0181EA94E00E94FC2668E070E080E022
:1034500090E00E94861D2196F0CFDF91CF910895D4
:10346000CF93DF9381EA94E00E947E27EC01C83776
:10347000D1056CF4BE0181EA94E00E94FC266FE065
:1034800070E080E090E00E94861D2196F0CF81EAF6
:1034900094E00E947E27EC01C937D1056CF0BE0193
:1034A00081EA94E00E94FC266FE070E080E090E00A
:1034B0000E94861D2197F0CFDF91CF910895CF9381
:1034C000DF9381EA94E00E947E27EC01C136D105AA
:1034D0006CF4BE0181EA94E00E94FC266FE070E08B
:1034E00080E090E00E94861D2196F0CF81EA94E072
:1034F0000E947E27EC01C236D1056CF0BE0181EA44
:1035000094E00E94FC266FE070E080E090E00E9472
:10351000861D2197F0CFDF91CF910895CF93DF9350
:103520006EEE72E080E090E00E94861D81EA94E0F9
:103530000E947E27EC01CE34D1056CF0BE0181EAF9
:1035400094E00E94FC266FE070E080E090E00E9432
:10355000861D2197F0CFDF91CF9108950F931F9390
:10356000CF93DF9325E030E040E050E061E070E091
:1035700080E090E00E9449248B01C0E0D0E0C017B9
:10358000D10734F40E948E1A0E945F1A2196F7CF59
:10359000DF91CF911F910F910C948E1A65347105B4
:1035A00049F06634710569F064347105A9F4840F3B
:1035B000951F02C0841B950B9093A00480939F04D9
:1035C0000BC0849F9001859F300D949F300D112476
:1035D0003093A00420939F0481EC94E00E94A720E4
:1035E00080919F049091A00408950F931F93CF930F
:1035F000DF9300D000D0CDB7DEB719821A821B82CC
:103600001C8289836A834B838E010F5F1F4FF801F1
:1036100001900020E9F7AF0141505109401B510BC7
:10362000E091C104F091C2040280F381E02DB80161
:1036300081EC94E0099561E374E0C8010E94702B6D
:10364000892B31F46FED70E08AE894E00E94AC13AE
:103650000F900F900F900F90DF91CF911F910F91CE
:10366000089549E06AE08AEA94E00E94301481EA11
:1036700094E00E94292662E172E084E994E00C94CF
:103680001A2584E994E00C94AC24CF93DF93EC01E9
:10369000BC0184E994E00E943125BE0181EC94E0F4
:1036A0000E94BB2081EC94E00E941D1F0497D4F37C
:1036B00081EC94E00E94411F8336A1F781EC94E0F5
:1036C0000E94411FD82F81EC94E00E94411FC82F17
:1036D00081EC94E00E94411FDF3621F7CE3611F7CE
:1036E000863601F7DF91CF9108958617970781F409
:1036F00085E394E00E94451B0E94AE1A68EB7BE0D4
:1037000080E090E00E94861D81EC94E00C948A1F7A
:1037100080919B0490919C04019690939C048093CB
:103720009B0487E394E00E94451B80919B04909149
:103730009C04069724F089E394E00E94451B0E94B4
:10374000161A60ED77E080E090E00E94861D0C94F0
:10375000301A0F931F93CF93DF93CDB7DEB76397E4
:103760000FB6F894DEBF0FBECDBF8AEA94E00E9488
:10377000ED19882309F44DC08AEA94E00E940C1ADE
:10378000882309F446C082E18B8B0AEA14E024EA1C
:1037900034E044E060E6C8010E9451198130C9F567
:1037A00024EA34E044E061E6C8010E945119813006
:1037B00081F59E012D5E3F4FAE014F5F5F4F64E08C
:1037C000C8010E94A619182F813079F068EC70E0CA
:1037D00081EC94E00E947B20612FC8010E94DE19D9
:1037E000BC0181EC94E00E94BB208AEA94E00E9434
:1037F0000E198AEA94E00E94A219898190E09093C0
:103800009E0480939D0460919F047091A0040E9487
:10381000751B63960FB6F894DEBF0FBECDBFDF9168
:10382000CF911F910F9108958F929F92AF92BF9267
:10383000CF92DF92EF92FF926C010E94571D4B01D5
:103840005C01EE24D7FCE094FE2C0E94571D681901
:1038500079098A099B096C157D058E059F0518F469
:103860000E94A91BF2CFFF90EF90DF90CF90BF9006
:10387000AF909F908F90089561E08CE00E94461E6B
:1038800061E08CE00E947F1E60E875E281EC94E0CC
:103890000E94142066E070E081EA94E00E94C32652
:1038A0000E9449258AEA94E00E94EC158FEF8093EC
:1038B000A4048093A5048093A6048093A704809316
:1038C000A8048093A90484E690E00E94141C24E0DC
:1038D00030E043E050E062E070E08AE894E00E946B
:1038E00014128AE894E00E9490120C94AE1AEF929F
:1038F000FF920F931F93CF93DF938C017B01EA011B
:103900008AE894E00E94BC1284E690E00E94141CB5
:10391000CC0FDD1FC55CDB4F28813981D701AA0F91
:10392000BB1FA55CBB4F4D915C91F801EE0FFF1FD3
:10393000E55CFB4F608171818AE894E00E94381356
:1039400088E893E1DF91CF911F910F91FF90EF9065
:103950000C94141CCF92DF92EF92FF920F931F935F
:10396000CF93DF931F92CDB7DEB781EC94E00E9436
:103970001D1F04970CF446C081EC94E00E94411F87
:10398000833751F581EC94E00E94411F6C0181EC7A
:1039900094E00E94411F7C0181EC94E00E94411F51
:1039A0008C01112700531109FF24DD2480E3C81A7C
:1039B000D108A801B701C6010E94CE1A9093A004B5
:1039C00080939F040E94301AB70160537109A801C7
:1039D000C6010E94771C16C08636A1F481EC94E0E3
:1039E0000E94411F182F81EC94E00E94411F682F14
:1039F00081EC94E069830E94411F482F6981812FE7
:103A00000E94F51A0F90DF91CF911F910F91FF90B7
:103A1000EF90DF90CF900C94A91B1F920F920FB6DE
:103A20000F9211242F933F938F939F93AF93BF9344
:103A30008091B9049091BA04A091BB04B091BC04E8
:103A40003091B80423E0230F2D3720F40196A11DF7
:103A5000B11D05C026E8230F0296A11DB11D2093BC
:103A6000B8048093B9049093BA04A093BB04B093B4
:103A7000BC048091BD049091BE04A091BF04B0919C
:103A8000C0040196A11DB11D8093BD049093BE0496
:103A9000A093BF04B093C004BF91AF919F918F9149
:103AA0003F912F910F900FBE0F901F9018952FB739
:103AB000F8946091B9047091BA048091BB0490911C
:103AC000BC042FBF08953FB7F8948091BD04909136
:103AD000BE04A091BF04B091C00426B5A89B05C048
:103AE0002F3F19F00196A11DB11D3FBF6627782F0A
:103AF000892F9A2F620F711D811D911D42E0660F63
:103B0000771F881F991F4A95D1F70895CF92DF92AA
:103B1000EF92FF92CF93DF936B017C010E94631DB4
:103B2000EB01C114D104E104F10479F00E94631D9A
:103B30006C1B7D0B683E7340A0F381E0C81AD1086E
:103B4000E108F108C851DC4FECCFDF91CF91FF9035
:103B5000EF90DF90CF9008950197009739F0880F8C
:103B6000991F880F991F02970197F1F7089578948C
:103B700084B5826084BD84B5816084BD85B5826072
:103B800085BD85B5816085BDEEE6F0E08081816010
:103B90008083E1E8F0E01082808182608083808110
:103BA00081608083E0E8F0E0808181608083E1E9EA
:103BB000F0E0808182608083808181608083E0E9A1
:103BC000F0E0808181608083E1ECF0E080818460BE
:103BD0008083808182608083808181608083E3EC48
:103BE000F0E0808181608083E0ECF0E080818260A1
:103BF0008083E2ECF0E0808181608083EAE7F0E09E
:103C00008081846080838081826080838081816004
:103C10008083808180688083089590E0FC013197E3
:103C2000EE30F10590F5EA5AFF4F0C944F2C80913D
:103C300080008F7703C0809180008F7D809380000B
:103C4000089584B58F7702C084B58F7D84BD0895B3
:103C5000809190008F7707C0809190008F7D03C086
:103C600080919000877F8093900008958091C0009C
:103C70008F7703C08091C0008F7D8093C00008952E
:103C80008091C200877F8093C2000895CF93DF9315
:103C900090E0FC01E354FE4D2491FC01E552FE4D01
:103CA0008491882349F190E0880F991FFC01EB5E15
:103CB000FD4DA591B491895F9D4DFC01C591D491B5
:103CC0009FB7611108C0F8948C91209582238C9342
:103CD000888182230AC0623051F4F8948C91322F8B
:103CE000309583238C938881822B888304C0F89439
:103CF0008C91822B8C939FBFDF91CF9108950F936E
:103D00001F93CF93DF931F92CDB7DEB7282F30E0FC
:103D1000F901E156FE4D8491F901E354FE4D1491F1
:103D2000F901E552FE4D04910023C9F0882321F0EA
:103D300069830E940D1E6981E02FF0E0EE0FFF1FE6
:103D4000E95FFD4DA591B4919FB7F8948C916111F5
:103D500003C01095812301C0812B8C939FBF0F90CE
:103D6000DF91CF911F910F910895CF93DF93282F6B
:103D700030E0F901E156FE4D8491F901E354FE4D26
:103D8000D491F901E552FE4DC491CC2391F08111FB
:103D90000E940D1EEC2FF0E0EE0FFF1FE750FE4DCE
:103DA000A591B4912C912D2381E090E021F480E045
:103DB00002C080E090E0DF91CF910895BF92CF9252
:103DC000DF92EF92FF920F931F93CF93DF93C82E52
:103DD000D62EB42EC7E0D0E0022F10E087E0E82E08
:103DE000F12CB1100AC0F701EC1BFD0BB80102C0A9
:103DF00075956795EA95E2F707C0B8010C2E02C0E9
:103E0000759567950A94E2F7617077278C2D0E946B
:103E10007F1E61E08D2D0E947F1E60E08D2D0E942F
:103E20007F1E2197F0F6DF91CF911F910F91FF90A8
:103E3000EF90DF90CF90BF90089580910F05909103
:103E400010052091110530911205821B930B8F7381
:103E50009927089520910F05309110058091110543
:103E6000909112052817390749F0E0911105F0915A
:103E70001205E153FB4F808190E008958FEF9FEF93
:103E8000089520910F0530911005809111059091B2
:103E9000120528173907A9F0E0911105F0911205D4
:103EA000E153FB4F808120911105309112052F5F66
:103EB0003F4F2F733327309312052093110590E065
:103EC00008958FEF9FEF0895CF93DF93C0910F0573
:103ED000D09110052196CF73DD2780911105909127
:103EE0001205C817D90799F082E00E943A218F3F46
:103EF0002FEF920761F0E0910F05F0911005E1536B
:103F0000FB4F8083D0931005C0930F05DFCFDF9167
:103F1000CF91089583E00C949E230F931F93CF932A
:103F2000DF931F92CDB7DEB78C01698380911101B9
:103F3000882359F041E050E0BE016F5F7F4F83E07E
:103F40000E946B21181619063CF081E090E0F80100
:103F50009383828380E090E00F90DF91CF911F9157
:103F60000F910895FC0120812E5F208342E450E0F0
:103F700063E272E280E80C940622FC018181908168
:103F8000913A59F4813209F04BC047E050E06AE0C1
:103F900071E080E00E94062245C0913209F040C0E5
:103FA000803239F467E070E08AE091E00E944A22B2
:103FB00039C0823209F034C082818093110180912E
:103FC0000A0190910B01A0910C01B0910D01803B71
:103FD0009440A105B10531F58091110180FD12C019
:103FE00087E797E790930108809300082BE088E12A
:103FF00090E00FB6F894A895809360000FBE2093D0
:10400000600010C088E10FB6F894809360001092B1
:1040100060000FBEA895109201081092000802C01F
:1040200080E0089581E0089508951092C4041092EC
:10403000C30488EE93E0A0E0B0E08093C5049093C1
:10404000C604A093C704B093C8048DE694E090938F
:10405000C2048093C10408950E94B71D83E195E0D6
:104060000E94A8230E943C1CC0E0D0E00E94AA1C31
:104070002097E1F30E940000F9CFCF92DF92EF92F8
:10408000FF920F931F93CF93DF936C017A01EB01A3
:10409000E60EF71E00E010E0CE15DF0561F0699135
:1040A000D601ED91FC910190F081E02DC6010995BA
:1040B000080F191FF1CFC801DF91CF911F910F9108
:1040C000FF90EF90DF90CF9008956115710581F01A
:1040D000DB010D900020E9F7AD0141505109461B6D
:1040E000570BDC01ED91FC910280F381E02D0994E6
:1040F00080E090E00895EF92FF920F931F93CF938B
:10410000DF938C01FB01C0E0D0E064917F018FEF71
:10411000E81AF80A662361F0D801ED91FC9101904C
:10412000F081E02DC8010995C80FD91FF701EDCF27
:10413000CE01DF91CF911F910F91FF90EF900895E5
:10414000DC01ED91FC910190F081E02D09940F9339
:104150001F93CF93DF93EC016DE00E94A0208C01B0
:104160006AE0CE010E94A020800F911FDF91CF91C5
:104170001F910F9108950F931F93CF93DF93EC013D
:104180000E9465208C01CE010E94A720800F911F04
:10419000DF91CF911F910F910895615030F02091E0
:1041A000F100FC0120830196F8CF289884E68093E3
:1041B0001A0508952FB7FC012083F8946770609367
:1041C000E9000895CF93DF931F92CDB7DEB7682F34
:1041D000CE0101960E94DA208091F20099819FBF62
:1041E0000F90DF91CF910895FF920F931F93CF937C
:1041F000DF9300D0CDB7DEB7F62E8A019091190576
:10420000992311F057FF03C08FEF9FEF2BC0682F4A
:10421000CE0101967A830E94DA208091F20090E02C
:10422000A8017A81801791070CF4AC01EF2DF72FCC
:10423000F40E84E6FE1639F0289880931A059091C2
:10424000F1009193F7CF4115510521F08091F200D3
:10425000882321F089818FBFCA0104C08BE6809337
:10426000E800F8CF0F900F90DF91CF911F910F9141
:10427000FF900895CF93DF931F92CDB7DEB741E053
:1042800050E0BE016F5F7F4F0E94F420019719F448
:10429000898190E002C08FEF9FEF0F90DF91CF9167
:1042A0000895CF93DF931F92CDB7DEB7682FCE016D
:1042B00001960E94DA209091E800892F807295FF84
:1042C00004C09091F20080E4891B99819FBF0F90F8
:1042D000DF91CF9108954F925F926F927F928F926C
:1042E0009F92AF92BF92CF92DF92EF92FF920F9385
:1042F0001F93CF93DF931F92CDB7DEB7582E7B016C
:10430000A42E952E80911905882369F0042F152F6E
:104310008AEFB82E852D8072782E9AE3892E852D0E
:104320008074682E11C08FEF9FEF53C0852D0E94BF
:104330005121482E81110CC0BA94A9F361E070E0BC
:1043400080E090E00E94861D0115110579F737C0C5
:10435000282F30E0021713070CF4402EC42CD12C68
:104360000C191D09652DCE0101960E94DA207720D7
:1043700039F04A948FEF4816B1F01092F100F9CF5E
:10438000F701842D57FE07C0815058F09491909307
:10439000F1003196F9CF815020F091919093F10086
:1043A000FACFEC0CFD1C8091E80085FF0FC00115D1
:1043B000110511F461100AC089818FBFC5CF5D98C6
:1043C00084E680931B058A2D992D03C08092E80016
:1043D000F3CF0F90DF91CF911F910F91FF90EF904E
:1043E000DF90CF90BF90AF909F908F907F906F9015
:1043F0005F904F9008951092E90010921805109266
:10440000170590931605809315050895CF93DF93B4
:10441000FB0120E030E0DEEF24173507A1F187FF34
:1044200002C0C49101C0C081A0911705B0911805C8
:104430006091150570911605A617B707B4F4909111
:10444000E8009570E1F39091E80092FD1EC0C093E2
:10445000F10060911705709118056F5F7F4F6F73C2
:104460007727672B11F4D093E800609117057091BE
:1044700018056F5F7F4F70931805609317052F5FC6
:104480003F4F3196C9CFC90102C08FEF9FEFDF9137
:10449000CF9108951F93CF93DF931F92CDB7DEB7CF
:1044A000162F2091E80022FFFCCF612F79830E9414
:1044B000CD208BEF8093E800812F7981972F0F908B
:1044C000DF91CF911F910895CF93DF931F92CDB7C6
:1044D000DEB71982CE0101960E94B21FCE0101966D
:1044E0000E94E827898190E00F90DF91CF91089595
:1044F0001F920F920FB60F921124EF92FF920F931B
:104500001F932F933F934F935F936F937F938F935B
:104510009F93AF93BF93EF93FF93CF93DF93CDB769
:10452000DEB76297DEBFCDBF1092E9008091E80050
:1045300083FFE7C068E0CE010A960E94CD2082EF9B
:104540008093E8009A8597FF05C08091E80080FF7E
:10455000FCCF03C08EEF8093E800892F807609F0AE
:10456000B5C08B85811105C01092F1001092F10049
:10457000C1C0282F2D7F213009F4BCC0853049F4FB
:104580008091E80080FFFCCF8C8580688093E300F9
:10459000B1C0863009F072C02D85E888F9882230D4
:1045A00071F580E090E02A8B0E94FB210E9464223A
:1045B00099E08E010F5F1F4FF801392F11923A9544
:1045C000E9F799832A892A8391E09E8390E8988766
:1045D0009AEF99872091170530911805275F3F4F73
:1045E0003C832B838D83C7010E94FB2149E050E06F
:1045F000B80180E00E9406220E9464227BC0C701AD
:104600002A8B0E94FB212A89223241F482E290E027
:104610000E94F327892B09F06DC070C0213069F426
:1046200088899989089711F42093140580911405BD
:10463000882389F06AE672E216C0233009F05EC072
:104640008C85882359F0823061F0813009F056C0A2
:104650006EE872E208C06CE772E205C068EC72E2D4
:1046600002C066EA72E26115710509F447C0FB01F8
:10467000449150E080E80E9406223CC0873009F453
:104680003DC0883021F481E08093F10033C089304F
:1046900089F5937099F5E6E6F2E281E021E096E390
:1046A0008093E9002093EB0034913093EC009093D9
:1046B000ED008F5F3196853099F78EE78093EA00A1
:1046C0001092EA008C858093190514C08889998915
:1046D0000E94FB218E85811105C0CE010A960E94A1
:1046E000BD1F06C0823051F4CE010A960E941B28DD
:1046F000882321F08EEF8093E80003C081E280934D
:10470000EB0062960FB6F894DEBF0FBECDBFDF910F
:10471000CF91FF91EF91BF91AF919F918F917F9139
:104720006F915F914F913F912F911F910F91FF904A
:10473000EF900F900FBE0F901F9018958093E90097
:104740008091F200882319F08AE38093E8000895AD
:104750001092190581E08093D70080EA8093D800F9
:1047600082E189BD09B400FEFDCF61E070E080E028
:1047700090E00E94861D80E98093D8008CE08093B1
:10478000E2001092E000559A209A08951F920F922D
:104790000FB60F9211242F933F934F935F936F9314
:1047A0007F938F939F93AF93BF93EF93FF938091EA
:1047B000E1001092E10083FF0FC01092E90091E048
:1047C0009093EB001092EC0092E39093ED00109226
:1047D000190598E09093F00082FF26C083E00E94C4
:1047E0009E2382E00E94E220882321F081EC94E065
:1047F0000E94641F80911B05882339F080911B055E
:10480000815080931B05882369F080911A058823C5
:1048100059F080911A05815080931A05811104C0C6
:10482000289A02C05D9AF1CFFF91EF91BF91AF91AD
:104830009F918F917F916F915F914F913F912F91B8
:104840000F900FBE0F901F901895CF93DF9300D05D
:1048500000D0CDB7DEB79B01AC01611571058105B4
:10486000910569F069833A834B835C830E94832AB4
:1048700029813A814B815C810E94F92B03C060E061
:1048800070E0CB010F900F900F900F90DF91CF91C0
:104890000895CF92DF92EF92FF926B017C01621735
:1048A00073078407950764F4CA01B9016C197D097F
:1048B0008E099F090E9425246C0D7D1D8E1D9F1D54
:1048C000FF90EF90DF90CF9008954F925F926F929C
:1048D0007F92AF92BF92CF92DF92EF92FF920F93AF
:1048E0001F93CF93DF93CDB7DEB729013A01621B47
:1048F000730B840B950B29893A894B895C892A199A
:104900003B094C095D09298B3A8B4B8B5C8B9B01D6
:10491000AC0169897A898B899C890E94932BE41860
:10492000F50806091709A80197010E94F92B2A0D1D
:104930003B1D4C1D5D1DCA01B901DF91CF911F9137
:104940000F91FF90EF90DF90CF90BF90AF907F904E
:104950006F905F904F900895FC01808191810C943D
:10496000A529CF93DF93EC0188819981009711F0FD
:104970000E94A529198218821D821C821B821A821C
:10498000DF91CF9108950F931F93CF93DF93EC01A5
:104990008B016F5F7F4F888199810E94912A0097D8
:1049A00031F0998388831B830A8381E001C080E012
:1049B000DF91CF911F910F910895CF93DF93EC0179
:1049C00088819981892B29F08A819B818617970795
:1049D00060F4CE010E94C324882341F08C819D8124
:1049E000892B19F4E881F981108281E0DF91CF9160
:1049F0000895EF92FF920F931F93CF93DF93EC01F3
:104A00007B018A01BA010E94DD24811104C0CE011C
:104A10000E94B12407C01D830C83B701888199814E
:104A20000E94792BCE01DF91CF911F910F91FF90C2
:104A3000EF900895FC011182108213821282158278
:104A4000148216826115710559F0FB010190002056
:104A5000E9F7AF0141505109461B570B0C94F9245B
:104A60000895CF93DF93EC016115710561F0FB01AF
:104A700001900020E9F7AF0141505109461B570B47
:104A80000E94F92402C00E94B124CE01DF91CF918F
:104A9000089561E081E10E947F1E61E081E10E9452
:104AA000461E8CB580618CBD8CB580648CBD61E088
:104AB0008FE00E94461E61E080E10C94461E811149
:104AC00003C08CB5806202C08CB58F7D8CBD08950B
:104AD0009CB5937F982B9CBD08951F920F920FB6A3
:104AE0000F9211242F933F934F935F936F937F9374
:104AF0008F939F93AF93BF93EF93FF9380911D0587
:104B000087FF05C010928500109284001AC0209182
:104B10001D05332727FD309580911C0590E028174F
:104B200039077CF480911D05992787FD9095FC013C
:104B3000EE0FFF1FE80FF91FE25EFA4F808186FD3E
:104B400015C080911D058F5F80931D0520911D0567
:104B5000332727FD309580911C0590E028173907F1
:104B6000BCF480911D058C305CF112C080911D0554
:104B7000992787FD9095FC01EE0FFF1FE80FF91FA5
:104B8000E25EFA4F808160E08F730E947F1ED9CF72
:104B90008091840090918500049680349C4918F49B
:104BA00080E49CE905C08091840090918500049682
:104BB00090938900809388008FEF80931D0538C003
:104BC000809184009091850020911D05332727FD59
:104BD0003095F901EE0FFF1FE20FF31FE25EFA4F6F
:104BE00021813281820F931F9093890080938800E6
:104BF00080911D05992787FD9095FC01EE0FFF1F01
:104C0000E80FF91FE25EFA4F808186FF11C08091A4
:104C10001D05992787FD9095FC01EE0FFF1FE80FFA
:104C2000F91FE25EFA4F808161E08F730E947F1E60
:104C3000FF91EF91BF91AF919F918F917F916F9174
:104C40005F914F913F912F910F900FBE0F901F904A
:104C5000189520911C052C30A0F431E0320F3093D0
:104C60001C05FC012083822F90E0FC01EE0FFF1F4A
:104C7000E80FF91FE25EFA4F88EB9BE09283818395
:104C800008952FEFFC0120830895DF92EF92FF92A9
:104C90000F931F93CF93DF93EC01D62E7A018901F6
:104CA00088818C3008F066C061E08D2D0E94461E20
:104CB0008881A82FB0E0FD01EE0FFF1FEA0FFB1F58
:104CC000E25EFA4F2D2D2F739081907C922B908372
:104CD00060E272E06E197F0977FF02C06D5F7F4F5F
:104CE0007595679575956795698340E659E0401B12
:104CF000510B57FF02C04D5F5F4F55954795559536
:104D000047954A836CE00E94A32B9CE0899FB001E9
:104D1000112420E030E0A901460F571FFA01EE0FE1
:104D2000FF1FE40FF51FE25EFA4F908196FD16C05B
:104D30002F5F3F4F2C30310571F781110FC010925A
:104D4000800082E0809381001092850010928400A0
:104D5000B19A80916F00826080936F00888190E0AB
:104D6000FC01EE0FFF1FE80FF91FE25EFA4F808192
:104D7000806480838881DF91CF911F910F91FF9094
:104D8000EF90DF90089520E639E040E252E00C9485
:104D90004526FC0180818C3070F5918128E830E057
:104DA000291B310997FD3395220F331F220F331F23
:104DB000621773077CF0928128E532E0291B3109E4
:104DC00097FD3395220F331F220F331F621773078E
:104DD0000CF49B014FB7F89490E0FC01EE0FFF1F1D
:104DE000E80FF91FE25EFA4F22503109220F331FFC
:104DF000328321834FBF08954F925F926F927F92CB
:104E0000AF92BF92CF92DF92EF92FF920F931F93D8
:104E1000CF93DF93EC01603282E078070CF040C062
:104E200077FD06C0653B71052CF064EB70E002C0B5
:104E300060E070E0898128E830E0281B310987FDB7
:104E40003395220F331F220F331F5901CC24B7FC97
:104E5000C094DC2C882777FD8095982F2A8148E51F
:104E600052E0421B510927FD5395440F551F440F33
:104E7000551F2A01662457FC6094762C7F926F920E
:104E80005F924F9214EBE12EF12C00E010E020E055
:104E900030E0A9010E9465240F900F900F900F90B1
:104EA000CE01DF91CF911F910F91FF90EF90DF9096
:104EB000CF90BF90AF907F906F905F904F900C9489
:104EC000C926FC0180818F3FB1F090E0FC01EE0F1C
:104ED000FF1FE80FF91FE25EFA4F8181928143E0E4
:104EE000880F991F4A95E1F754E0969587955A9552
:104EF000E1F70296089580E090E00895AF92BF92A6
:104F0000CF92DF92EF92FF920F931F93CF93DF9395
:104F1000EC010E9461272A8148E552E0421B5109B9
:104F200027FD5395440F551F440F551F7A01002745
:104F3000F7FC0095102F498128E830E0241B310947
:104F400047FD3395220F331F220F331F442737FDB0
:104F50004095542F0196BC01882777FD8095982FA6
:104F60001F921F921F92E4EBEF93A12CB12C6501CD
:104F70000E9465240F900F900F900F90CB01DF914E
:104F8000CF911F910F91FF90EF90DF90CF90BF9046
:104F9000AF900895FF920F931F93CF93DF93EC018F
:104FA000F62EE881F9810480F581E02D09958C01C8
:104FB000E881F9810680F781E02D6F2DCE010995FA
:104FC000C8019927DF91CF911F910F91FF9008950C
:104FD000FC0120812F5F208349E150E06CE473E203
:104FE00080E80C94062245E650E065E673E280E82E
:104FF0000C940622EF92FF920F931F93CF93DF93AF
:105000001F92CDB7DEB789838B017A0141E050E072
:10501000BE016F5F7F4F84E00E946B21A701B80142
:1050200084E40E946B210F90DF91CF911F910F912B
:10503000FF90EF900895FC0191818081813A31F4D5
:1050400081E0913091F0933089F411C0813271F494
:105050009B3021F482818093130105C09A3031F492
:1050600082818093120181E00895089580E008957F
:1050700048E050E082E00C94FA27CF93DF93DC0104
:10508000683818F0E8E7E60F25C0E62FF0E067FF84
:1050900011C0E058F10981E090E001C0880FEA9565
:1050A000EAF714969C911497982B14969C93149756
:1050B000E0E010C0E453FD4DE491EE2309F440C05C
:1050C000E7FF08C014968C911497826014968C9315
:1050D0001497EF7716968C9116978E1741F11796C5
:1050E0008C9117978E1719F118968C9118978E1727
:1050F000F1F019968C9119978E17C9F01A968C9128
:105100001A978E17A1F01B968C911B978E1779F02A
:1051100080E090E0ED01C80FD91F2E81211102C05F
:10512000EE8305C0019686309105A1F709C0BD0147
:105130006C5F7F4FCD010E94382881E090E008C06D
:1051400081E090E013969C938E93129780E090E01C
:10515000DF91CF910895683818F0E8E7E60F25C091
:10516000E62FF0E067FF12C0E058F10921E030E0DF
:1051700001C0220FEA95EAF72095DC0114963C91D4
:105180001497322314963C93E0E00FC0E453FD4D96
:10519000E491EE2329F1E7FF08C0DC0114962C917D
:1051A00014972D7F14962C93EF7720E030E0EE23B8
:1051B00051F0DC01A20FB31F16964C9116974E13B7
:1051C00002C016961C922F5F3F4F2630310579F7AB
:1051D000BC016C5F7F4F0E94382881E090E0089509
:1051E00080E090E00895FC011682178210861186F7
:1051F000128613861482BC016C5F7F4F0C94382892
:1052000010924E0510924505109244058FE794E0E8
:1052100090934305809342050895CF93DF938230A6
:10522000910510F482E090E0E0915105F091520573
:1052300020E030E0A0E0B0E0309739F140815181CA
:1052400048175907B8F04817590771F482819381BC
:10525000109729F013969C938E9312972CC09093DD
:1052600052058093510527C02115310531F04217B1
:10527000530718F0A901DB0101C0EF019A01BD013C
:10528000DF010280F381E02DD7CF21153105F9F040
:10529000281B390B2430310580F48A819B816115EC
:1052A000710521F0FB019383828304C09093520522
:1052B00080935105FE01329644C0FE01E20FF31FB8
:1052C0008193919322503109398328833AC02091E8
:1052D0004F0530915005232B41F42091020130916C
:1052E00003013093500520934F0520910001309128
:1052F00001012115310541F42DB73EB7409104015C
:1053000050910501241B350BE0914F05F09150059C
:10531000E217F307A0F42E1B3F0B2817390778F08C
:10532000AC014E5F5F4F2417350748F04E0F5F1FEB
:105330005093500540934F058193919302C0E0E054
:10534000F0E0CF01DF91CF910895CF93DF930097E5
:1053500009F487C0FC01329713821282C091510573
:10536000D0915205209781F420813181280F391F77
:1053700080914F05909150058217930779F5F0932E
:105380005005E0934F056DC0DE0120E030E0AE1720
:10539000BF0750F412964D915C9113979D014115F2
:1053A000510509F1DA01F3CFB383A2834081518122
:1053B000840F951F8A179B0771F48D919C9111970B
:1053C000840F951F02969183808312968D919C91F4
:1053D0001397938382832115310529F4F0935205A5
:1053E000E09351053EC0D9011396FC93EE931297BA
:1053F0004D915D91A40FB51FEA17FB0779F48081E9
:105400009181840F951F0296D90111969C938E93DA
:105410008281938113969C938E931297E0E0F0E043
:105420008A819B81009719F0FE01EC01F9CFCE0132
:10543000029628813981820F931F20914F05309168
:1054400050052817390769F4309729F4109252054E
:105450001092510502C013821282D0935005C0935E
:105460004F05DF91CF9108958F929F92AF92BF9297
:10547000CF92DF92EF92FF92CF93DF93EC0168819E
:1054800079818A819B81611571058105910521F4DE
:1054900064E279ED8BE597E02DE133EF41E050E0F8
:1054A0000E94F92B49015A019B01AC01A7EAB1E422
:1054B0000E94802B6B017C01ACEEB4EFA50194013E
:1054C0000E948E2BC60ED71EE81EF91EF7FE06C0E0
:1054D00081E0C81AD108E10880E8F80AC882D982B8
:1054E000EA82FB82C701B6019F77DF91CF91FF90DF
:1054F000EF90DF90CF90BF90AF909F908F900895E6
:105500000E94342A089586E091E00E94342A08958A
:10551000609306017093070180930801909309013D
:105520000895A0E0B0E0E7E9FAE20C941C2CEC014D
:10553000CB01209719F40E940D29B8C0FE01E60F97
:10554000F71F9E0122503109E217F30708F4ACC09F
:10555000D9010D911C91119706171707B8F0053066
:10556000110508F49FC0A801445051094617570778
:1055700008F498C002501109061B170B01931193F0
:105580006D937C93CF010E94A5298CC05B01A01A6A
:10559000B10A4E01800E911EA0915105B0915205A5
:1055A000612C712C60E070E0109709F449C0A815D7
:1055B000B905C9F5ED90FC901197670142E0C40E62
:1055C000D11CCA14DB0478F147018A189B086401D6
:1055D00042E0C40ED11C1296BC9012971396AC9167
:1055E000B5E0CB16D10440F0B282A38391828082D1
:1055F000D9018D939C9309C00E5F1F4F0E0D1F1D87
:10560000F90111830083EB2DFA2F6115710531F03B
:10561000DB011396FC93EE93129744C0F09352056E
:10562000E09351053FC06D917C9111976616770606
:1056300008F43B01BD0112960D90BC91A02DB4CF92
:1056400060914F057091500568157905E9F4681669
:105650007906D0F4409100015091010141155105A6
:1056600041F44DB75EB76091040170910501461B8E
:10567000570BE417F507C0F4F0935005E0934F057E
:10568000F901918380830EC00E940D297C0100974F
:1056900059F0A801BE010E94672BCE010E94A529E6
:1056A000C70104C0CE0102C080E090E0CDB7DEB7F4
:1056B000EEE00C94382CF8940C94642CFB01DC0183
:1056C00002C005900D9241505040D8F70895FB015B
:1056D000DC0102C001900D9241505040D8F708956E
:1056E000FB01DC018D91019080190110D9F3990B18
:1056F0000895FB01DC0101900D920020E1F708956F
:105700000E94552CA59F900DB49F900DA49F800DD5
:10571000911D11240895B7FF0C94802B0E94802BBB
:10572000821B930B0895DB018F939F930E94802B24
:10573000BF91AF91A29F800D911DA39F900DB29F2D
:10574000900D11240895991B79E004C0991F9617B4
:1057500008F0961B881F7A95C9F780950895AA1BB3
:10576000BB1B51E107C0AA1FBB1FA617B70710F04C
:10577000A61BB70B881F991F5A95A9F7809590957E
:10578000BC01CD01089597FB072E16F4009407D0B5
:1057900077FD09D00E94AF2B07FC05D03EF4909511
:1057A00081959F4F0895709561957F4F0895A1E26F
:1057B0001A2EAA1BBB1BFD010DC0AA1FBB1FEE1F8B
:1057C000FF1FA217B307E407F50720F0A21BB30BD6
:1057D000E40BF50B661F771F881F991F1A9469F752
:1057E00060957095809590959B01AC01BD01CF01AE
:1057F0000895052E97FB1EF400940E94102C57FD6F
:1058000007D00E94D72B07FC03D04EF40C94102C29
:1058100050954095309521953F4F4F4F5F4F0895DC
:1058200090958095709561957F4F8F4F9F4F08950C
:105830002F923F924F925F926F927F928F929F92A0
:10584000AF92BF92CF92DF92EF92FF920F931F938E
:10585000CF93DF93CDB7DEB7CA1BDB0B0FB6F8943F
:10586000DEBF0FBECDBF09942A88398848885F847F
:105870006E847D848C849B84AA84B984C884DF80F0
:10588000EE80FD800C811B81AA81B981CE0FD11DD4
:105890000FB6F894DEBF0FBECDBFED010895EE0F39
:1058A000FF1F0590F491E02D0994A29FB001B39FD2
:1058B000C001A39F700D811D1124911DB29F700D19
:1058C000811D1124911D089513E2C2EDD3E204C09D
:1058D000FE010E94512C2296C43DD107C9F7F894CD
:0258E000FFCFF8
:1058E2000000530520000100000000E1000000005C
:1058F20000000101556E6B6E6F776E206572726FDC
:1059020072005049434320636F6D706C69616E741D
:1059120020776974682049534F2F49454320313419
:105922003434332D34005049434320636F6D706C1F
:1059320069616E7420776974682049534F2F494515
:105942004320313830393220284E464329004D4910
:1059520046415245204D696E692C20333230206217
:1059620079746573004D494641524520314B4200DE
:105972004D494641524520344B42004D4946415221
:105982004520556C7472616C69676874206F72206F
:10599200556C7472616C696768742043004D4946A6
:1059A20041524520506C7573004D49464152452085
:1059B200544E50335858580053414B20696E646915
:1059C200636174657320554944206973206E6F7456
:1059D20020636F6D706C6574652E00556E6B6E6F13
:1059E200776E2074797065002030002020202020FE
:1059F2002020005043445F41757468656E7469638A
:105A02006174652829206661696C65643A20004DDD
:105A120049464152455F52656164282920666169A1
:105A22006C65643A200020496E7665727465642064
:105A320061636365737320626974732064696420AF
:105A42006E6F74206D617463682120002056616C52
:105A520075653D307800204164723D307800205BEE
:105A62002000205D2000536563746F7220426C6FCA
:105A7200636B202020302020312020322020332050
:105A820020203420203520203620203720202038A6
:105A92002020392031302031312020313220313361
:105AA20020313420313520204163636573734269AC
:105AB200747300506167652020302020312020322D
:105AC2002020330043617264205549443A00504912
:105AD200434320747970653A200044756D70696E95
