:100000000C94D1100C94F9100C94F9100C94F91074
:100010000C94F9100C94F9100C94F9100C94F9103C
:100020000C94F9100C94F9100C94F9100C94AD2167
:100030000C94F9100C94F9100C94F9100C94F9101C
:100040000C94F61B0C94F9100C94731E0C94B61EB1
:100050000C94F9100C94F9100C94F9100C94F910FC
:100060000C94F9100C94F9104D49464152455F52D9
:100070006561642829206661696C65643A20000026
:100080000000000000000000000000000000000070
:100090000000000000000000000000000000000060
:1000A0000000000000000000000000000000000050
:1000B0000000000000000000000000000000000040
:1000C0000000000000000000000000000000000030
:1000D00030000000000000000000000000000000F0
:1000E0007C00000000000000000000000200000092
:1000F0007E00000000000000000000000E800000F4
:100100007EC0000000000000000000003E800000F3
:100110001EE000000000000000000000FE80000063
:1001200006F800000000000000000000FE000000D3
:1001300000FE00000000000000000006F8000000C3
:1001400000FE8000000000000000001EE000000033
:10015000003EC000000000000000007EE000000043
:1001600000FEF00000000000000000FEF8000000AB
:1001700000FEFC0000000000000002FEFC00000089
:1001800002FCFE000000000000000EF6FE00000071
:1001900006F07E800000000000003EE0FE0000004F
:1001A0000EE01EE00000000000007E807E80000067
:1001B0001EC01EF8000000000000FE003EC000004F
:1001C0003EE01EFE000000000006FE007EE0000093
:1001D0003EF00CFE00000000001EF200E6E0000011
:1001E0007E30043EC0000000003EC28EE2F00000FF
:1001F0007C300C0EF000000000FE009E82F000003B
:10020000FC3E1C06FC00000002FE029800F8000004
:10021000F83E1800FE00000006F8021800F8000082
:10022000F8061802FE8000001EE0061800F8000024
:10023000F00218FE1EE000007EC0067800FC000000
:10024000F00218FE0EF80000FE668CF0007C000044
:10025000F002FE8002FC0002FC7EC6C0007C0000B2
:10026000F000FE0000FE000EFC38E6C0007C00003E
:10027000F0E0FE8000FEC03EFC0076E0007C000066
:10028000F0FAFE8000FEF0FEFC003EF6807C0000EE
:10029000F0BAFEF000F6F0FE78003EFEE03C000012
:1002A000F08EFEF800F0F0F87C001EFCF8FC000078
:1002B000FC86FE9800F060607C701EF83EFC00003A
:1002C000FE82FE9C00F000007C7CFEF8067C0000B4
:1002D000FE80FE8EE0F000007C6EFEF0007C0000F0
:1002E000F000FE06F0F000007C769EF8007C000036
:1002F000F800FE803AF000007E300EFC00FC0000AA
:10030000F80282001EE000003EF006EC00F800005B
:10031000FC0602000EE000003EE0060C00F80000C3
:10032000FC06028006E000003EC0020C00F800005F
:100330007E0600800EC000001E80060C02F0000049
:100340007E0600801EC000001E800E0C02F0000021
:100350003E3E00C01E8000000EC01C0C06E00000E7
:100360003EBC00C03E8000000EE0380C0EE00000F5
:100370001EE000C0FE00000006F0700E1EC000006F
:100380000EF000C0FE00000002FC6006FE800000CF
:1003900006FC00F6FC00000000FE6000FE0000000D
:1003A00002FE00FEF800000000FEE006FE00000075
:1003B00000FEFAFEF0000000007EFEFEFC000000E1
:1003C00000FEFEFEE0000000003EFEFEF800000021
:1003D000003EFEFE80000000000EFEFEE000000079
:1003E000000EFEFE000000000002FEFE8000000085
:1003F0000000FEF00000000000007EFC0000000095
:1004000000000000000000000000000000000000EC
:1004100000000000000000000000000000000000DC
:1004200000000000000000000000000000000000CC
:1004300000000000000000000000000000000000BC
:1004400000000000000000000000000000000000AC
:10045000000000000000000000000000000000009C
:10046000000000000000000000000000000000008C
:10047000000000000000000000000000000000007C
:10048000000000000000000000000000000000006C
:10049000000000000000000000000000000000005C
:1004A000000000000000000000000000000000004C
:1004B000000000000000000000000000000000003C
:1004C000000000000000000000000000000000002C
:1004D000000000000000000000000000000000001C
:1004E000000000000000000000000000000000000C
:1004F00000000000000000000000000000000000FC
:1005000000000000000000000000000000000000EB
:1005100000000000000000000000003EFEC00000DF
:100520003EFEC000007EFEC000007EFEC000007ED9
:10053000FEC000007EFEC0000000000000000000C1
:1005400000000000000000000000000000000000AB
:10055000000000000000000000000000000000009B
:10056000000000000000000000000000000000008B
:10057000000000000000000000000000000000007B
:10058000000000000000000000000000000000006B
:10059000000000000000000000000000000000005B
:1005A000000000000000000000000000000000004B
:1005B000000000000000000000000000000000003B
:1005C000000000000000000000000000000000002B
:1005D000000000000000000000000000000000001B
:1005E000000000000000000000000000000000000B
:1005F00000000000000000000000000000000000FB
:1006000000000000000000000000000000000000EA
:1006100000000000000000000000000000000000DA
:1006200000000000000000000000000000000000CA
:10063000000006F800FE0006F802FE0006FC06FEBA
:100640000002FC06FC0002FE0EF80000FE1EF00098
:1006500000FE1EF00000FEBEE000007EFEC00000B6
:100660007EFEC000003EFE8000003EFE0000001E38
:10067000FE0000000EFE0000000EFC0000000EFC5C
:100680000000001EFC0000001EFE0000003EFE00F8
:1006900000007EFE000000FEFE800000FEFE8000E6
:1006A00000FE7EC00002FE3EE00006FE3EE00006C8
:1006B000FC1EF0000EF80EF0001EF00EF8003EF0EA
:1006C00006FC003EE006FC003EC002FC000000000C
:1006D000000000000000000000000000000000001A
:1006E000000000000000000000000000000000000A
:1006F00000000000000000000000000000000000FA
:1007000000000000000000000000000000000000E9
:1007100000000000000000000000000000000000D9
:1007200000000000000000000000000000000000C9
:1007300000000000000000000000000000000000B9
:1007400000000000000000000000000000000000A9
:100750000000000000000000000000000000000099
:100760000000000000000000000000000000000089
:1007700000000000FE00000000FE00000000FE007F
:10078000000000FE00000000FE00000000FE00006F
:100790000000FE00000000FE00000000FE0000005F
:1007A00000FE00000000FE00000000FE000000004F
:1007B000FE00001EFEFEFEE01EFEFEFEE01EFEFE31
:1007C000FEE01EFEFEFEE01EFEFEFEE01EFEFEFE43
:1007D000E00000FE00000000FE00000000FE00003F
:1007E0000000FE00000000FE00000000FE0000000F
:1007F00000FE00000000FE00000000FE00000000FF
:10080000FE00000000FE00000000FE0000000000EE
:1008100000000000000000000000000000000000D8
:1008200000000000000000000000000000000000C8
:1008300000000000000000000000000000000000B8
:1008400000000000000000000000000000000000A8
:100850000000000000000000000000000000000098
:1008600000000000000000000000000000F000FC9C
:100870000000F002FE0000F002FE0002F006FE8022
:1008800002F006FE8006F00EFE800EF00E8E800E48
:10089000F00E86C01EF00E06C01EF01E06C00EF042
:1008A0001E02C00EF01E02C00CF01E02C000F01EA0
:1008B00002C000F01E02C000E01E02C000E01E06E2
:1008C000C000E01E06C000E01E06C000E01E0EC014
:1008D00000E00E9E8000E00EFE8000E00EFE800034
:1008E000E00EFE8000E006FE8000E006FE8000E0F4
:1008F00002FE0000E000EE0000E0000E0000E0005C
:100900001E0000E0001E0000E0001E0000E0001ECF
:100910000000E0003E0000E0003E0000E0003C007F
:1009200000E0007C0000E0007C0000E000780000B7
:10093000E000780000E000F80000E000F80000E0CF
:1009400000F00000000000000000000000000000B7
:100950000000000000000000000000000000000097
:100960000000000000000000000000000000000087
:100970000000000000000000000000000000000077
:100980000000000000000000000000000000000067
:100990000000000000000000000000000000000057
:1009A000000000000000000000000000007800FED1
:1009B00000007800FE8000F802FEC000F802FEC0D1
:1009C00000F806FEE002F806E6E006F806C2E006D9
:1009D000F80680E00EF80680E00EF80680E006F8E3
:1009E0000680E006780680E006780680E00078065B
:1009F00082E0007806C2E0007006C6C000F006EE95
:100A0000C000F002FEC000F002FE8000F002FE8096
:100A100000F000FE0000F000FE0000F002FE80008A
:100A2000F006FEC000F006FEC000F00ECEC000F0E2
:100A30000EC6E000F00E82E000F00E02E000F00EC4
:100A400000E000F00E00E000F00E00E000F00E000C
:100A5000E000F00E00E000F00E00E000F00E02E01A
:100A600000F00E82E000F00EC6E000F00EFEC000C6
:100A7000F006FEC000F006FE8000F002FE8000F0EE
:100A800000FE00000000FC0000000000000000006C
:100A90000000000000000000000000000000000056
:100AA0000000000000000000000000000000000046
:100AB0000000000000000000000000000000000036
:100AC0000000000000000000000000000000000026
:100AD0000000000000000000000000000000000016
:100AE00000000000000000000000000000F00EFE0A
:100AF000C000F00EFEC000F00EFEC002F00EFEC000
:100B000002F00EFEC006F00EFEC00EF00006C00E93
:100B1000F00006C01EF00006C01EF00006800EF0B9
:100B2000000E800EF0000E800CF0000E0000F000B1
:100B30000E0000F0001E0000E0001E0000E0001E9D
:100B40000000E0001E0000E0003E0000E0003E006B
:100B500000E0003C0000E0003C0000E0007C000001
:100B6000E0007C0000E000780000E000780000E099
:100B700000F80000E000F80000E000F00000E000F5
:100B8000F00000E000F00000E000F00000E000E015
:100B90000000E000E00000E002E00000E002E00011
:100BA00000E002C00000E002C00000E006C000005B
:100BB000E006C00000E006800000E006800000E0E3
:100BC000068000000000000000000000000000009F
:100BD0000000000000000000000000000000000015
:100BE0000000000000000000000000000000000005
:100BF00000000000000000000000000000000000F5
:100C000000000000000000000000000000000000E4
:100C100000000000000000000000000000000000D4
:100C200000000000000000000000000000F0001EB6
:100C30000000F0003E0000F0003E0002F0007C00EA
:100C400002F0007C0006F000F8000EF000F8000E44
:100C5000F000F8001EF000F0001EF002F0000EF0B0
:100C600002E0000EF002E0000CF006C00000F0060A
:100C7000C00000F006C00000E006800000E00EFEAC
:100C80000000E00EFE0000E00EFE0000E00EFE8020
:100C900000E01EFE8000E01EFE8000E01ECE800010
:100CA000E01E86C000E01E06C000E01E02C000E09C
:100CB0001E02C000E01E02C000E01E02C000E01ED6
:100CC00002C000E01E02C000E01E02C000E01E02E2
:100CD000C000E01E06C000E01E068000E01E068088
:100CE00000E01E0E8000E00E9E8000E00EFE800000
:100CF000E00EFE0000E006FE0000E006FE0000E060
:100D000002FC00000000F8000000000000000000ED
:100D100000000000000000000000000000000000D3
:100D200000000000000000000000000000000000C3
:100D300000000000000000000000000000000000B3
:100D400000000000000000000000000000000000A3
:100D50000000000000000000000000000000000093
:100D600000000000000000000000000000F006FE8F
:100D70008000F006FE8000F006FE8002F006FE8095
:100D800002F006FE8006F006FE800EF00680000EE1
:100D9000F00600001EF00600001EF00600000EF037
:100DA0000600000EF00600000CF006000000F00641
:100DB000000000F006000000E00E700000E00EFCF5
:100DC0000000E00EFE0000E00EFE0000E00EFE005F
:100DD00000E00EFE0000E00EFE8000E00E8E8000BF
:100DE000E0060E8000E002068000E00006C000E0A1
:100DF0000006C000E00002C000E00002C000E00009
:100E000002C000E00006C000E00006C000E00006EE
:100E10008000E00C068000E01C0E8000E01E0E80CA
:100E200000E03E1E8000E03EBE8000E03EFE00008E
:100E3000E01EFE0000E00EFE0000E00EFE0000E0FE
:100E400006FC00000000F0000000000000000000B0
:100E50000000000000000000000000000000000092
:100E60000000000000000000000000000000000082
:100E70000000000000000000000000000000000072
:100E80000000000000000000000000000000000062
:100E90000000000000000000000000000000000052
:100EA00000000000000000000000000000F0001E34
:100EB0000000F0001E0000F0001E0002F0003E00E6
:100EC00002F0003E0006F0003C000EF0007C000E38
:100ED000F0007C001EF00078001EF000F8000EF01C
:100EE00000FE000EF000F6000CF000F60000F0002E
:100EF000FE0000F000EE0000E002EE0000E002EE76
:100F00000000E002CE0000E006CE0000E006CE00C9
:100F100000E006CE0000E00E8E0000E00E8E000025
:100F2000E00E8E0000E01E0E0000E01E0E0000E04D
:100F30001E0E0000E01EFEC000E01EFEC000E01E0F
:100F4000FEC000E01EFEC000E01EFEC000E01EFE6F
:100F5000C000E0000E0000E0000E0000E0000E0007
:100F600000E0000E0000E0000E0000E0000E0000B7
:100F7000E0000E0000E0000E0000E0000E0000E0C7
:100F8000000E000000000000000000000000000053
:100F90000000000000000000000000000000000051
:100FA0000000000000000000000000000000000041
:100FB0000000000000000000000000000000000031
:100FC0000000000000000000000000000000000021
:100FD0000000000000000000000000000000000011
:100FE00000000000000000000000000000F000FC15
:100FF0000000F002FE0000F006FE0002F006FE0017
:1010000002F00EFE8006F00EFE800EF00E8E800EB8
:10101000F00E06801EF00E06801EF00606800EF012
:101020000606800EF00006800CF000068000F0003E
:10103000068000F000068000E0000E8000E0001E48
:101040008000E0003E0000E002FE0000E002FE0042
:1010500000E002FE0000E002FE0000E002FE0000F0
:10106000E0007E0000E0001E8000E0000E8000E056
:1010700000068000E000068000E000068000E0003E
:10108000068000E000068000E000068000E0000628
:101090008000E01C068000E01C068000E03E0E8020
:1010A00000E03E0E8000E03E9E8000E01EFE00005C
:1010B000E01EFE0000E00EFE0000E006FE0000E084
:1010C00002FC00000000F000000000000000000032
:1010D0000000000000000000000000000000000010
:1010E0000000000000000000000000000000000000
:1010F00000000000000000000000000000000000F0
:1011000000000000000000000000000000000000DF
:1011100000000000000000000000000000000000CF
:1011200000000000000000000000000000F000FED1
:101130000000F000FE0000F002FE0002F002FE805F
:1011400002F006FE8006F006FEC00EF00ECEC00EC7
:10115000F00E86C01EF00E82C01EF00E02C00EF011
:101160001E02C00EF01E02C00CF00E02C000F00005
:1011700002C000F00002C000E00006C000E000066F
:10118000C000E00006C000E0000E8000E0000E801D
:1011900000E0000E8000E0001E8000E0001E000065
:1011A000E0003E0000E0003E0000E0007E0000E0C5
:1011B000007C0000E000FC0000E000F80000E0001F
:1011C000F80000E000F00000E002F00000E002E0C3
:1011D0000000E006E00000E006C00000E00EC000F5
:1011E00000E01E800000E01EFE8000E01EFE800089
:1011F000E01EFE8000E01EFE8000E01EFE8000E09B
:101200001EFE800000000000000000000000000042
:1012100000000000000000000000000000000000CE
:1012200000000000000000000000000000000000BE
:1012300000000000000000000000000000000000AE
:10124000000000000000000000000000000000009E
:10125000000000000000000000000000000000008E
:1012600000000000000000000000000000F0003C52
:101270000000F0003C0000F0007C0002F000FC00E8
:1012800002F000FC0006F000FC000EF002FC000E74
:10129000F002FC001EF006FC001EF006FC000EF042
:1012A00002FC000EF002BC000CF0023C0000F0005A
:1012B0003C0000F0003C0000E000380000E0007856
:1012C0000000E000780000E000780000E000780016
:1012D00000E000780000E000780000E00078000006
:1012E000E000780000E000780000E000780000E016
:1012F00000780000E000780000E000780000E000E6
:10130000780000E000780000E000780000E000785D
:101310000000E000780000E000780000E0007800C5
:1013200000E000780000E000780000E000780000B5
:10133000E000780000E000780000E000780000E0C5
:101340000078000000000000000000000000000025
:10135000000000000000000000000000000000008D
:10136000000000000000000000000000000000007D
:10137000000000000000000000000000000000006D
:10138000000000000000000000000000000000005D
:10139000000000000000000000000000000000004D
:1013A00000000000000000000000000000F000FE4F
:1013B0000000F000FE0000F002FE0002F002FE80DD
:1013C00002F006FE8006F006EE800EF00EC6C00E9D
:1013D000F00E86C01EF00E86C01EF00E02C00EF08B
:1013E0000E02C00EF01E02C00CF01E02C000F01E65
:1013F00002C000F01E02E000E01E02E000E01E005D
:10140000E000E01E00E000E01E00E000E01E00E062
:1014100000E01E00E000E01E00E000E01E00E00032
:10142000E01E02E000E01E02C000E01E02C000E07C
:101430001E02C000E01E02C000E01E02C000E01E4E
:1014400002C000E01E02C000E01E02C000E01E0656
:10145000C000E01E06C000E01E068000E01E0E80F8
:1014600000E00E0E8000E00E9E8000E00EFE000008
:10147000E00EFE0000E006FE0000E006FE0000E0D8
:1014800002FC00000000F800000000000000000066
:10149000000000000000000000000000000000004C
:1014A000000000000000000000000000000000003C
:1014B000000000000000000000000000000000002C
:1014C000000000000000000000000000000000001C
:1014D000000000000000000000000000000000000C
:1014E00000000000000000000000000000000000FC
:1014F000000000FE8000000EFEF000001EFEF8005E
:10150000007EFEFC0000FEFEFE0000FEFEFE00006F
:10151000FEC6FE0002FE00FE8002FE007E8006FC8B
:10152000007E8006FC003EC006F8003EC006F800C3
:101530003EC006F8003EC006F0003EC006F0003E89
:10154000C006F8003EC006F8007E8006F8007E80E7
:1015500006FC00FE8006FC00FE8006FE06FE800201
:10156000FEDEFE0002FEFEFE0000FEFEFE0000FEAD
:10157000FEFE00007EFEFE00001EFEFE000002F2E7
:10158000FC00000002FC00000006F800000006F865
:101590000000000EF80000000EF00000001EF00039
:1015A00000001EE00000003EE00000007EC00000E1
:1015B000007E80000000FE80000000FE00000000B1
:1015C000FE00000002FE00000002FC00000000001F
:1015D000000000000000000000000000000000000B
:1015E00000000000000000000000000000000000FB
:1015F00000000000000000000000000000000000EB
:1016000000000000000000000000000000000000DA
:1016100000000000000000000000000000000000CA
:1016200000000000000000000000000000000000BA
:10163000000000FE8000001EFEF800003EFEFC00E0
:1016400000FEFEFE0000FEFEFE0000FEFEFE80022A
:10165000FE80FE8002FE00FE8002FC007EC002FCD6
:10166000003EC002F8003EC002F8003EC002FC008E
:101670007EC002FC007E8002FE00FE8002FE00FEB4
:101680008002FE82FE0000FEEEFE0000FEFEFE0076
:1016900000FEFEF800003EFEF000001EFEE000002E
:1016A0007EFEF00000FEFEFC0000FEFEFE0002FEDC
:1016B000DEFE0006FE06FE800EFE02FE800EF80034
:1016C000FE800EF0007EC01EF0007EC01EE0003ED8
:1016D000C01EE0003EC01EE0003EC01EE0003EC056
:1016E0001EF0007EC00EF8007E800EFC00FE800E14
:1016F000FE02FE8006FEFEFE0006FEFEFE0002FE6C
:10170000FEFC0000FEFEF800003EFEE0000006FECB
:1017100000000000000000000000000000000000C9
:1017200000000000000000000000000000000000B9
:1017300000000000000000000000000000000000A9
:101740000000000000000000000000000000000099
:101750000000000000000000000000000000000089
:101760000000000000000000000000000000000079
:1017700000000000000000FEFEFEE000FEFEFEE0B5
:1017800000FEFEFEE000FEFEFEC000FEFEFEC0000B
:10179000FEFEFEC00000007EC00000007E80000053
:1017A00000FE80000000FE00000000FE00000000BF
:1017B000FE00000002FE00000002FC00000006FC2B
:1017C00000000006F80000000EF80000000EF00017
:1017D00000001EF00000001EE00000003EE00000DF
:1017E000003EC00000007EC00000007E80000000BF
:1017F000FE80000000FE00000000FE00000000FE71
:1018000000000002FE00000002FC00000006FC00D8
:10181000000006F80000000EF80000000EF00000C6
:10182000001EF00000001EE00000003EE00000008E
:101830003EC00000007EC00000007E80000000FE70
:1018400080000000FE00000000FE0000000000001C
:101850000000000000000000000000000000000088
:101860000000000000000000000000000000000078
:101870000000000000000000000000000000000068
:101880000000000000000000000000000000000058
:101890000000000000000000000000000000000048
:1018A0000000000000000000000000000000000038
:1018B00000000000000000001EF00000003EF000EC
:1018C00000007EE0000000FEC0000000FE8000007E
:1018D00002FE00000002FE00000006FE0000000EF6
:1018E000FC0000001EF80000003EF00000003EE09A
:1018F0000000007EC00000007EC0000000FE8000EE
:101900000000FE3E000000FEFEF00000FEFEF800BB
:1019100002FEFEFE0002FEFEFE0006FEFEFE0006C9
:10192000FEF6FE8006FE80FE8006FE00FE8006F8C3
:10193000007E800EF8007EC00EF0003EC00EF0006B
:101940003EC00EF0003EC00EF0003EC00EF0003E65
:10195000C00EF0007E8006F8007E8006F8007E80D3
:1019600006F800FE8006FC00FE8002FE00FE00027B
:10197000FE06FE0000FEFEFE0000FEFEFC0000FE75
:10198000FEF800007EFEF000001EFEC0000002FE19
:101990000000000000000000000000000000000047
:1019A0000000000000000000000000000000000037
:1019B0000000000000000000000000000000000027
:1019C0000000000000000000000000000000000017
:1019D0000000000000000000000000000000000007
:1019E00000000000000000000000000000000000F7
:1019F00000000000000000FEFEFE8000FEFEFE80F3
:101A000000FEFEFE8000FEFEFE8000FEFEFE800068
:101A1000FEFEFE8000FE00000000FE00000000FE52
:101A200000000000FE00000000FE00000000FE00BC
:101A3000000000FE00000000FE00000000FE0000AC
:101A40000000FEFE000000FEFEE00000FEFEF800CA
:101A500000FEFEFC0000FEFEFE0000FEFEFE00009A
:101A6000FEDEFE0000FE02FE00007C00FE800000A4
:101A700000FE800000007E800000007E80000000EC
:101A80007E800000007E800000007E800000007EDE
:101A9000800000007E80000000FE80068000FE8046
:101AA00006C000FE000EE002FE001EF806FE001E4C
:101AB000FE1EFE001EFEFEFC000EFEFEF80006FEF0
:101AC000FEF00000FEFEE000007EFE8000000EFC46
:101AD0000000000000000000000000000000000006
:101AE00000000000000000000000000000000000F6
:101AF00000000000000000000000000000000000E6
:101B000000000000000000000000000000000000D5
:101B100000000000000000000000000000000000C5
:101B200000000000000000000000000000000000B5
:101B300000000000000000000EF80000000EF80099
:101B400000001EF00000003EE00000003EE000004B
:101B5000007EC00000007E80000000FE80000000CB
:101B6000FE00000000FE00000002FEFE000006FC79
:101B7000FE000006FCFE00000EF8FE00001EF0FE57
:101B800000001EF0FE00003EE0FC00003EE0FC0015
:101B9000007EC0FC0000FE80FC0000FE80FC000017
:101BA000FE00FC0002FE00FC0002FE00FC0006FC41
:101BB00000FC0006FC00FC000EF800FC000EFEFE1F
:101BC000FEE00EFEFEFEE00EFEFEFEC01EFEFEFE6F
:101BD000C01EFEFEFEC01EFEFEFEC0000002FC0097
:101BE000000002F800000002F800000002F8000007
:101BF0000002F800000002F800000002F8000000F7
:101C000002F800000002F800000002F800000000E6
:101C100000000000000000000000000000000000C4
:101C200000000000000000000000000000000000B4
:101C300000000000000000000000000000000000A4
:101C40000000000000000000000000000000000094
:101C50000000000000000000000000000000000084
:101C60000000000000000000000000000000000074
:101C7000000000FE0000001EFEE000003EFEF80036
:101C800000FEFEFC0000FEFEFE0002FEFEFE000660
:101C9000FEC6FE0006FE00FE0002FC00FE0000F88C
:101CA00000FE8000E0007E800000007E80000000DA
:101CB0007E80000000FE00000000FE00000000FE2C
:101CC00000000002FE00000006FE0000003EFC00D6
:101CD000003EFEFC00003EFEF000003EFEE0000084
:101CE0003EFEF800003EFEFC000000FEFE0000008C
:101CF0000EFE00000002FE00000000FE00000000DA
:101D0000FE00000000FE800000007E800000007EDB
:101D1000800000007E800280007E8006C000FE0001
:101D20000EE000FE001EF000FE001EF802FE001E87
:101D3000FE1EFE000EFEFEFE0006FEFEFC0002FE83
:101D4000FEF80000FEFEE000007EFEC000000EFE79
:101D50000000000000000000000000000000000083
:101D60000000000000000000000000000000000073
:101D70000000000000000000000000000000000063
:101D80000000000000000000000000000000000053
:101D90000000000000000000000000000000000043
:101DA0000000000000000000000000000000000033
:101DB000000000FE80000006FEF000001EFEFC0099
:101DC000003EFEFE00007EFEFE0000FEFEFE000065
:101DD000FEE6FE8002FE00FE8002FE007E8006FC23
:101DE000007EC006F8003EC006F8003EC002F000CB
:101DF0003EC000F0003EC00000003EC00000007E7B
:101E0000C00000007E80000000FE80000000FE8018
:101E1000000000FE00000002FE00000006FE0000C0
:101E2000000EFC0000001EFC0000003EF800000058
:101E30007EF0000000FEE0000000FEC0000002FE98
:101E400080000006FE0000000EFE0000001EFC00E8
:101E500000003EF80000007EF0000000FEE0000000
:101E600000FEC0000002FE80000006FE0000000E22
:101E7000FEFEFE801EFEFEFE801EFEFEFE001EFE1C
:101E8000FEFE001EFEFEFE001EFEFEFE0000000026
:101E90000000000000000000000000000000000042
:101EA0000000000000000000000000000000000032
:101EB0000000000000000000000000000000000022
:101EC0000000000000000000000000000000000012
:101ED0000000000000000000000000000000000002
:101EE00000000000000000000000000000000000F2
:101EF00000000000000000003E800000007E800026
:101F00000000FE80000000FE80000006FE80000051
:101F10000EFE8000003EFE8000007EFE8000007EFF
:101F2000FE8000003EFE8000003EBE8000001E7E5F
:101F3000800000007E800000007E800000007E8027
:101F40000000007E800000007E800000007E800097
:101F500000007E000000007E000000007E00000007
:101F6000007E000000007E000000007E00000000F7
:101F70007E000000007E000000007E000000007E69
:101F8000000000007E000000007E00000000FE0057
:101F9000000000FE00000000FE00000000FE000047
:101FA0000000FE00000000FE00000000FE00000037
:101FB00000FE00000000FE00000000FE0000000027
:101FC000FE00000000FE00000000FE000000000017
:101FD0000000000000000000000000000000000001
:101FE00000000000000000000000000000000000F1
:101FF00000000000000000000000000000000000E1
:1020000000000000000000000000000000000000D0
:1020100000000000000000000000000000000000C0
:1020200000000000000000000000000000000000B0
:10203000000000FE80000006FEF000001EFEF8001A
:10204000003EFEFC00007EFEFE0000FEFEFE0000E4
:10205000FEC0FE8000FE80FE8002FE007EC002FE0A
:10206000007EC006FC003EC006FC003EC006F80034
:102070003EE006F8001EE00EF8001EE00EF0001E26
:10208000E00EF0001EE00EF0001EE00EF0001EE07C
:102090000EF0001EE01EE0001EE01EE0001EE01E2E
:1020A000E0001EE01EE0001EE01EE0001EE01EE05C
:1020B000001EE01EE0001EE01EE0001EE01EE0002C
:1020C0003EC00EE0003EC00EF0003EC00EF0003EEE
:1020D000C00EF0007EC00EF0007E800EF800FE8084
:1020E00006F800FE8006FC00FE0006FE02FE00026E
:1020F000FE0EFE0002FEFEFC0000FEFEF80000FEEA
:10210000FEF000007EFEE000001EFEC0000006FEA5
:1021100000000000000000000000000000000000BF
:1021200000000000000000000000000000000000AF
:10213000000000000000000000000000000000009F
:102140000000070002010000030406000000000078
:102150000000000102040810204080010204081061
:1021600020010204081020040404040404040402EE
:102170000202020202030303030303000000002320
:10218000002600290000000000250028002B000088
:10219000000000240027002A00000013181A721FF4
:1021A000281A11241FBECFEFD8E0DEBFCDBF14E048
:1021B000A0E0B1E0ECEDFEE402C005900D92A03786
:1021C000B107D9F715E0A0E7B4E001C01D92AB3725
:1021D000B107E1F711E2C0EAD1E204C02297FE01A3
:1021E0000E944E27CA39D107C9F70E94C81F0C9414
:1021F00058260C940000FC01778366835583448342
:10220000318720870895FC01808191810C94951C71
:102210000F931F93CF93DF931F92CDB7DEB78C013F
:10222000262F61E0FC01848129830E943D1DC801A5
:102230000E940311298141E0F801668180850E9496
:102240009C1D60E0F80184810F90DF91CF911F9178
:102250000F910C943D1DEF92FF920F931F93CF931C
:10226000DF93EC018B017B018FE0E822FF2468EF14
:1022700070E0CE010E940811B801607F7727CE017F
:102280000E940811B70184E0660F771F8A95E1F775
:10229000CE01DF91CF911F910F91FF90EF900C94A1
:1022A0000811EF92FF920F931F93CF93DF93EC01EE
:1022B0008B017B018FE0E822FF246AEF70E0CE0102
:1022C0000E940811B801607F7727CE010E94081193
:1022D000B70194E0660F771F9A95E1F7CE01DF9181
:1022E000CF911F910F91FF90EF900C940811CF9315
:1022F000DF93EC0161E08C810E94041D61E08E811E
:102300000E94041D61E088850E94041D60E08C81AC
:102310000E943D1DCE010E94031160E370E0CE01DA
:102320000E942B116CE070E0CE010E942B1161E045
:1023300070E0CE010E942B1166E070E0CE01DF91CB
:10234000CF910C942B11CF93DF93EC0160E370E0FD
:102350000E942B1161E070E0CE01DF91CF910C94CF
:102360002B11EF92FF920F931F93CF93DF937C017A
:10237000EB018A0160E170E00E94C026FC01049636
:102380000997A8F49701F7FE02C0215F3F4FA4E030
:1023900035952795AA95E1F785E0829FB001839F47
:1023A000700D11246E0F7F1F6C0F7D1F33C0DF0176
:1023B0001597A530B105A8F49701F7FE02C0215F7B
:1023C0003F4F74E0359527957A95E1F785E0829F38
:1023D000B001839F700D11246A0F7B1F600F711F66
:1023E00019C0DF011A97A530B105D8F4A701F7FE8F
:1023F00002C0415F5F4F64E0559547956A95E1F7EC
:1024000085E0849FB001859F700D11246A0F7B1FAA
:10241000620F731F41E050E080E090E00E945B2675
:1024200003C03F97359718F08091000001C080E00D
:10243000DF91CF911F910F91FF90EF9008954F92F0
:102440005F926F927F928F929F92AF92BF92CF9244
:10245000DF92EF92FF920F931F93CF93DF93EC01E4
:102460006B015A014901412C512C00E010E0380168
:10247000003211053CF420E8620E711C80E8E82E61
:10248000F12C06C080E6680E711CB8E8EB2EF12C2A
:1024900064E370E0CE010E942B11B301CE010E94D3
:1024A0002B11B701CE010E942B1160E370E0CE0129
:1024B0000E942B11C201320120E1620E711C7C01CD
:1024C0002FEFE21AF20A9401A501B6010E94B111A0
:1024D000682F70E0CE010E945111E614F70411F04C
:1024E000C701EDCF0F5F1F4F0034110511F023011D
:1024F000BECF64E370E0CE010E942B1166E370E072
:10250000CE01DF91CF911F910F91FF90EF90DF905F
:10251000CF90BF90AF909F908F907F906F905F9083
:102520004F900C942B11AF92BF92CF92DF92EF920B
:10253000FF920F931F93CF93DF93EC015B0100E0B9
:1025400010E06801003211053CF480E8C80ED11C8F
:1025500020E8E22EF12C06C0E0E6CE0ED11C98E871
:10256000E92EF12C64E370E0CE010E942B11B6013C
:10257000CE010E942B11B701CE010E942B1160E306
:1025800070E0CE010E942B1182E090E00E940A24AC
:102590006C01E12CF12CB7016A0D7B1D41E050E08C
:1025A000C6010E945B26F60160817181CE010E9406
:1025B0005111FFEFEF1AFF0A80E1E816F10459F715
:1025C0000F5F1F4FE0E1AE0EB11C0034110509F0A2
:1025D000B8CFC6010E94A22464E370E0CE010E943D
:1025E0002B1166E370E0CE01DF91CF911F910F9127
:1025F000FF90EF90DF90CF90BF90AF900C942B1195
:1026000080E590E09093730480937204909371043A
:102610008093700408958EBD0DB407FEFDCF8EB576
:10262000089581E00E949F2180E00C94A8210F93DF
:102630001F93CF93DF931F92CDB7DEB78C01862F08
:10264000F801648761E049830E94041D61E0F8019C
:1026500084850E943D1D4981F801458761E0842FF2
:102660000E94041D60E0F80185850E943D1DC8019F
:102670000F90DF91CF911F910F910C941113EF9256
:10268000FF921F93CF93DF931F92CDB7DEB77C01EC
:10269000162F60E0FC01848549830E943D1D812F37
:1026A0008E770E940B134981842F0E940B1361E0E7
:1026B000F70184850F90DF91CF911F91FF90EF90EC
:1026C0000C943D1DCF92DF92EF92FF920F931F93D8
:1026D000CF93DF9300D0CDB7DEB78C01E62EF42E7A
:1026E00060E0FC01848529833A830E943D1D8E2D84
:1026F0008E770E940B132981E22EC22E3A81D32EAF
:102700008C2D8E198F1530F4F60181916F010E9486
:102710000B13F6CF61E0F80184850F900F90DF91E5
:10272000CF911F910F91FF90EF90DF90CF900C947D
:102730003D1D1F93CF93DF93EC01162F60E08C8536
:102740000E943D1D812F8E7780680E940B1380E0D0
:102750000E940B13182F61E08C850E943D1D812F74
:10276000DF91CF911F9108957F928F929F92AF92A8
:10277000BF92CF92DF92EF92FF920F931F93CF936E
:10278000DF936C01842EE901442309F453C0162F12
:102790001E77106860E0FC0184850E943D1D8A94CC
:1027A000812F0E940B137C2EEC2EFD2EAA24A394C5
:1027B000B12C8E2D8719881528F581111AC0002398
:1027C000C1F0802F912C883048F49501082E01C06B
:1027D000220F0A94EAF7922A8F5FF5CF812F0E9489
:1027E0000B13992D9095288192238921982B9883FA
:1027F00005C0812F0E940B13F7018083FFEFEF1AB2
:10280000FF0AD7CFC80DD11D80E00E940B1388832B
:1028100061E0F6018485DF91CF911F910F91FF90C8
:10282000EF90DF90CF90BF90AF909F908F907F9070
:102830000C943D1DDF91CF911F910F91FF90EF9070
:10284000DF90CF90BF90AF909F908F907F90089532
:10285000EF92FF921F93CF93DF931F92CDB7DEB716
:102860007C01162F49830E9499134981482B612FBF
:10287000C7010F90DF91CF911F91FF90EF900C94C3
:102880003F13EF92FF921F93CF93DF931F92CDB729
:10289000DEB77C01162F49830E9499134981409528
:1028A0004823612FC7010F90DF91CF911F91FF90B7
:1028B000EF900C943F13DF92EF92FF920F931F93D0
:1028C000CF93DF93EC018B01D42E790140E062E0DD
:1028D0000E943F1344E06AE0CE010E943F1340E8AB
:1028E00064E1CE010E94281498014D2D62E1CE01D1
:1028F0000E94621343E062E0CE010E943F1308E8A9
:1029000013E16AE0CE010E94991382FD07C00150D5
:10291000110901151105A9F784E012C040E062E039
:10292000CE010E943F1364E4CE010E949913F70187
:10293000808362E4CE010E949913F701818381E0D4
:10294000DF91CF911F910F91FF90EF90DF9008954D
:10295000CF93DF93EC014FE062E00E943F1362E30C
:1029600070E080E090E00E946F1C62E0CE010E9467
:10297000991384FDFACFDF91CF910895CF93DF9320
:10298000EC0168E20E949913982F9370933041F004
:10299000482F436068E2CE01DF91CF910C943F1342
:1029A000DF91CF910895CF93DF93EC018D850E9445
:1029B000731D892B59F461E08D850E943D1D62E3F2
:1029C00070E080E090E00E946F1C03C0CE010E9486
:1029D000A81440E864E5CE010E943F1349EA66E589
:1029E000CE010E943F1343E068E5CE010E943F13F1
:1029F00048EE6AE5CE010E943F1340E46AE2CE0150
:102A00000E943F134DE362E2CE010E943F13CE01CC
:102A1000DF91CF910C94BE142F923F925F926F92F0
:102A20007F928F929F92AF92BF92CF92DF92EF925E
:102A3000FF920F931F93CF93DF9300D000D0CDB7B9
:102A4000DEB73C01962E542E302E082DA114B10471
:102A500019F0F501408101C040E0242EF0E10F9F04
:102A6000200C112440E062E0C3012B833C830E94D0
:102A70003F134FE768E0C3010E943F1340E864E161
:102A8000C3010E9428142B813C81432D62E1C301C4
:102A90000E946213422D6AE1C3010E943F13492D37
:102AA00062E0C3010E943F138CE0981205C040E829
:102AB0006AE1C3010E94281490ED292E97E0392E77
:102AC00068E0C3010E949913982F952149F480FD75
:102AD00065C0E1E02E1A31082114310489F75EC087
:102AE0006CE0C3010E949913982E837109F058C0BD
:102AF000E114F104F1F0C114D104D9F064E1C3018F
:102B00000E949913482FF6018081841708F44AC067
:102B10004083970162E1C3010E94B41368E1C301DD
:102B20000E949913182F1770A114B10411F0F50128
:102B3000108393FC39C0E114F104C1F1C114D10434
:102B4000A9F1888D882391F1F6014081413019F473
:102B5000143019F421C0423010F488E028C011115B
:102B6000FCCF42509E012F5F3F4FB701C3010E942F
:102B70005B148130E1F4F6018081E80EF11CF7016D
:102B80003297908189819813E8CFF701319790812E
:102B90008A819813E2CF0AC089E009C084E007C0A7
:102BA00082E005C085E003C083E001C081E00F90B2
:102BB0000F900F900F90DF91CF911F910F91FF9089
:102BC000EF90DF90CF90BF90AF909F908F907F90CD
:102BD0006F905F903F902F9008958F92AF92BF9229
:102BE000CF92DF92EF92FF920F931F93AF928C2CB4
:102BF000570168017901042F9B0140E36CE00E94BA
:102C00000C150F901F910F91FF90EF90DF90CF90D8
:102C1000BF90AF908F9008954F925F926F927F9286
:102C20008F929F92AF92CF92EF92FF920F931F934A
:102C3000CF93DF9300D0CDB7DEB73C016A832A0182
:102C400049014115510531F1F9018081823010F1BE
:102C500040E86CE1C3010E94411487E08983A12C04
:102C6000C12CCE0101967C018401920141E0BE019C
:102C70006E5F7F4FC3010E94ED15813061F4F40156
:102C80008081823011F082E006C089818111FBCF02
:102C900081E001C085E00F900F90DF91CF911F91EF
:102CA0000F91FF90EF90CF90AF909F908F907F907B
:102CB0006F905F904F9008959A01AB0166E20C947B
:102CC0000C162F923F924F925F926F927F928F924B
:102CD0009F92AF92BF92CF92DF92EF92FF920F93AB
:102CE0001F93CF93DF93CDB7DEB72D970FB6F89430
:102CF000DEBF0FBECDBF3C012B01342E20E52417D3
:102D000008F40BC140E86CE10E944114BB24B39469
:102D100032E0B31691F043E0B416E1F081E0B8126E
:102D200000C183E989833320D1F041E0D2018C9145
:102D3000853008F440E0D12C17C085E98983332021
:102D400081F041E0F2018081883008F440E073E0D6
:102D5000D72E0AC087E9898366E0D62E04C0D12C1D
:102D600002C053E0D52E40E0532DF8EFDF9E500D0A
:102D7000112457FD50E0442321F088E88B8373E051
:102D800001C072E091E0852F877009F490E0852FF3
:102D9000859585958595890F21F4442311F1585F18
:102DA00020C0442311F063E001C064E0861708F4FA
:102DB000682F80E090E092012D0D311DE72FE80F84
:102DC000A1E0B0E0AC0FBD1FAE0FB11DFD01D901F8
:102DD000A80FB91F1196AC91A0830196861770F3C6
:102DE000DCCF43E0242E503204F1B0E7BA838C816B
:102DF0009B8189279D8189279E8189278F839E01B9
:102E0000285F3F4F47E0BE016F5F7F4FC3015D8783
:102E10000E945B145D85813009F0CEC01B862A8636
:102E2000FE0137964F0179E01EC0952F97709B8762
:102E3000252F25952595259582E0820F392FF0E1E4
:102E40008F9F300D11243A8371E0911101C070E021
:102E5000780F88248394912C8C0E9D1E880E911CD3
:102E600087E0821B8A87CB844C2D4295407F4C0D96
:102E70006AE1C3015D877C870E943F13A12C9E01FC
:102E8000255F3F4F79018E01065F1F4F94017C85BE
:102E9000472FBE016F5F7F4FC3010E94ED155D8517
:102EA0008330A1F56CE1C3010E9499135D8585FD16
:102EB00036C0482F4F7109F440E2842F90E0252F4F
:102EC000332727FD3095281739075CF5542F0197D4
:102ED00087709927242F2595259525952F5F31E01B
:102EE000811101C030E0230FE1E0F0E0EC0FFD1FA5
:102EF000E20FF11DA1E0B0E002C0AA0FBB1F8A954E
:102F0000E2F7CD019081982B90836DCF813009F04D
:102F100053C0503244F450E268CF87E04DC083E0A4
:102F20004BC086E049C08B81883819F052E044E0FC
:102F300002C053E043E080E090E092012D0D311D8E
:102F4000F901E80FF91F652F680FA1E0B0E0AC0FA1
:102F5000BD1FA60FB11D6C9161830196841780F38C
:102F60008A85833031F58B85811123C09E012D5FC9
:102F70003F4F41E0B401C3010E945B148130E1F492
:102F80009B81F4018181981316C09C8182819813E2
:102F900012C0808182FF02C0B394BACED2011B96C8
:102FA0008C931B978B2D880F8B0D8F5F8C9381E0FB
:102FB00003C082E001C088E02D960FB6F894DEBF12
:102FC0000FBECDBFDF91CF911F910F91FF90EF907A
:102FD000DF90CF90BF90AF909F908F907F906F9039
:102FE0005F904F903F902F9008958F929F92AF9255
:102FF000CF92EF92FF920F931F93CF93DF9300D066
:1030000000D0CDB7DEB74C0180E589831A829E01DE
:103010002D5F3F4F42E0BE016F5F7F4FC4010E94B2
:103020005B148130B1F4A12CC12CE12CF12C00E017
:1030300010E020E030E044E0BE016F5F7F4FC4014C
:103040000E94ED15843021F0813019F482E001C036
:1030500081E00F900F900F900F90DF91CF911F9113
:103060000F91FF90EF90CF90AF909F908F90089529
:103070008F92AF92BF92CF92DF92EF92FF920F9317
:103080001F93CF93DF93CDB7DEB72C970FB6F8948D
:10309000DEBF0FBECDBFF80169834A8389019E015F
:1030A0002D5F3F4FAE01475F5F4FD8016D918D019E
:1030B000D9016D939D01A417B507B9F7218129871F
:1030C00022812A8723812B8724812C871F92812CA0
:1030D000A12CB12CC12CD12CE12CF12C0CE09E01A7
:1030E0002F5F3F4F40E16EE00E940C150F902C9631
:1030F0000FB6F894DEBF0FBECDBFDF91CF911F9109
:103100000F91FF90EF90DF90CF90BF90AF908F9096
:10311000089548E060E10C9441148F929F92AF9221
:10312000CF92EF92FF920F931F93CF93DF934C01B7
:10313000EA0189012097E9F0F90180818231C8F024
:1031400080E3888369839A012E5F3F4F42E0BE018E
:10315000C4010E945B14813069F4AA24A394C12C99
:10316000E12CF12C9E0144E0BE01C4010E94ED154A
:1031700001C085E0DF91CF911F910F91FF90EF90FB
:10318000CF90AF909F908F9008956150693048F430
:10319000E62FF0E0EE0FFF1FEB5EFB4F8081918189
:1031A00008958AE091E00895CF93DF9300D01F92B5
:1031B000CDB7DEB722E02B83AE014D5F5F4FBE017E
:1031C0006F5F7F4F0E945C16813031F091E0833059
:1031D00009F090E0892F01C081E00F900F900F90CF
:1031E000DF91CF91089540E0BC010E94611691E00B
:1031F000813009F090E0892F0895CF93DF9387E81D
:1032000094E00E94BE23EC01CE38D1056CF4BE01DF
:1032100087E894E00E943C2368E070E080E090E062
:103220000E946F1C2196F0CFDF91CF910895CF932C
:10323000DF9387E894E00E94BE23EC01C837D105F4
:103240006CF4BE0187E894E00E943C236FE070E0DC
:1032500080E090E00E946F1C2196F0CF87E894E018
:103260000E94BE23EC01C937D1056CF0BE0187E88E
:1032700094E00E943C236FE070E080E090E00E94C8
:103280006F1C2197F0CFDF91CF910895CF93DF93FB
:1032900087E894E00E94BE23EC01C136D1056CF4AE
:1032A000BE0187E894E00E943C236FE070E080E07C
:1032B00090E00E946F1C2196F0CF87E894E00E9476
:1032C000BE23EC01C236D1056CF0BE0187E894E064
:1032D0000E943C236FE070E080E090E00E946F1C51
:1032E0002197F0CFDF91CF910895CF93DF936EEECA
:1032F00072E080E090E00E946F1C87E894E00E94FA
:10330000BE23EC01CE34D1056CF0BE0187E894E019
:103310000E943C236FE070E080E090E00E946F1C10
:103320002197F0CFDF91CF9108950F931F93CF9303
:10333000DF9325E030E040E050E061E070E080E0C5
:1033400090E00E9489208B01C0E0D0E0C017D10737
:1033500034F40E9475190E9446192196F7CFDF9127
:10336000CF911F910F910C9475196534710549F037
:103370006634710569F064347105A9F4840F951FF2
:1033800002C0841B950B90938604809385040BC028
:10339000849F9001859F300D949F300D11243093B0
:1033A00086042093850487EA94E00E943F20809160
:1033B00085049091860408950F931F93CF93DF9314
:1033C00000D000D0CDB7DEB719821A821B821C82D2
:1033D00089836A834B838E010F5F1F4FF801019031
:1033E0000020E9F7AF0141505109401B510BE0911A
:1033F000A704F091A8040280F381E02DB80187EAC8
:1034000094E0099567E274E0C8010E946D26892B5B
:1034100031F46FE770E080E794E00E9493120F9020
:103420000F900F900F90DF91CF911F910F91089502
:1034300049E06AE080E994E00E94171387E894E08D
:103440000E94692268E072E08AE794E00C945A21B5
:103450008AE794E00C94EC20CF93DF93EC01BC015D
:103460008AE794E00E947121BE0187EA94E00E94FD
:10347000532087EA94E00E94DB1D0497D4F387EA87
:1034800094E00E94081E8336A1F787EA94E00E9428
:10349000081ED82F87EA94E00E94081EC82F87EAEA
:1034A00094E00E94081EDF3621F7CE3611F78636EB
:1034B00001F7DF91CF9108958617970781F48BE28A
:1034C00094E00E942C1A0E94951968EB7BE080E042
:1034D00090E00E946F1C87EA94E00C942A1E809171
:1034E00081049091820401969093820480938104D8
:1034F0008DE294E00E942C1A8091810490918204C4
:10350000069724F08FE294E00E942C1A0E94FD1886
:1035100060ED77E080E090E00E946F1C0C9417193A
:103520000F931F93CF93DF93CDB7DEB763970FB69B
:10353000F894DEBF0FBECDBF80E994E00E94D4189E
:10354000882309F44DC080E994E00E94F318882391
:1035500009F446C082E18B8B00E914E02AE834E0EC
:1035600044E060E6C8010E9438188130C9F52AE8B5
:1035700034E044E061E6C8010E943818813081F5EA
:103580009E012D5E3F4FAE014F5F5F4F64E0C8016B
:103590000E948D18182F813079F068E670E087EA74
:1035A00094E00E941320612FC8010E94C518BC013D
:1035B00087EA94E00E94532080E994E00E94F51786
:1035C00080E994E00E948918898190E090938404B6
:1035D0008093830460918504709186040E945C1A34
:1035E00063960FB6F894DEBF0FBECDBFDF91CF91CB
:1035F0001F910F9108958F929F92AF92BF92CF9299
:10360000DF92EF92FF926C010E94401C4B015C0123
:10361000EE24D7FCE094FE2C0E94401C6819790926
:103620008A099B096C157D058E059F0518F40E947B
:10363000901AF2CFFF90EF90DF90CF90BF90AF90B5
:103640009F908F90089561E08CE00E94041D61E0DE
:103650008CE00E943D1D40E855E260E070E087EAA2
:1036600094E00E94F11E66E070E087E894E00E941A
:1036700003230E94892180E994E00E94D3148FEFF4
:1036800080938A0480938B0480938C0480938D04B0
:1036900080938E0480938F0484E690E00E94FB1A4E
:1036A00024E030E043E050E062E070E080E794E046
:1036B0000E94FB1080E794E00E9477110C9495190A
:1036C000EF92FF920F931F93CF93DF938C017B01B7
:1036D000EA0180E794E00E94A31184E690E00E9452
:1036E000FB1ACC0FDD1FCF5CDB4F28813981D7015E
:1036F000AA0FBB1FAF5CBB4F4D915C91F801EE0F61
:10370000FF1FEF5CFB4F6081718180E794E00E94B6
:103710001F1288E893E1DF91CF911F910F91FF90E5
:10372000EF900C94FB1ACF92DF92EF92FF920F93DF
:103730001F93CF93DF931F92CDB7DEB787EA94E054
:103740000E94DB1D04970CF446C087EA94E00E94B7
:10375000081E833751F587EA94E00E94081E6C0129
:1037600087EA94E00E94081E7C0187EA94E00E94A8
:10377000081E8C01112700531109FF24DD2480E36A
:10378000C81AD108A801B701C6010E94B5199093C3
:103790008604809385040E941719B701605371094C
:1037A000A801C6010E94601B16C08636A1F487EAF4
:1037B00094E00E94081E182F87EA94E00E94081ED9
:1037C000682F87EA94E069830E94081E482F698168
:1037D000812F0E94DC190F90DF91CF911F910F91E3
:1037E000FF90EF90DF90CF900C94901A1F920F9261
:1037F0000FB60F9211242F933F938F939F93AF9304
:10380000BF9380919F049091A004A091A104B091D6
:10381000A20430919E0423E0230F2D3720F401965B
:10382000A11DB11D05C026E8230F0296A11DB11DE3
:1038300020939E0480939F049093A004A093A104DE
:10384000B093A2048091A3049091A404A091A50434
:10385000B091A6040196A11DB11D8093A30490937D
:10386000A404A093A504B093A604BF91AF919F9127
:103870008F913F912F910F900FBE0F901F90189531
:103880002FB7F89460919F047091A0048091A104D7
:103890009091A2042FBF08953FB7F8948091A3049C
:1038A0009091A404A091A504B091A60426B5A89B6C
:1038B00005C02F3F19F00196A11DB11D3FBF66271E
:1038C000782F892F9A2F620F711D811D911D42E063
:1038D000660F771F881F991F4A95D1F70895CF92D9
:1038E000DF92EF92FF92CF93DF936B017C010E94F6
:1038F0004C1CEB01C114D104E104F10479F00E94E5
:103900004C1C6C1B7D0B683E7340A0F381E0C81A11
:10391000D108E108F108C851DC4FECCFDF91CF911D
:10392000FF90EF90DF90CF9008950197009739F0C6
:10393000880F991F880F991F02970197F1F7089533
:10394000789484B5826084BD84B5816084BD85B57A
:10395000826085BD85B5816085BDEEE6F0E0808141
:1039600081608083E1E8F0E0108280818260808362
:10397000808181608083E0E8F0E0808181608083E5
:10398000E1EBF0E0808184608083E0EBF0E0808117
:1039900081608083EAE7F0E08081846080838081B9
:1039A0008260808380818160808380818068808361
:1039B0001092C1000895833081F028F4813099F08D
:1039C0008230A1F008958630A9F08730B9F08430B4
:1039D000D1F4809180008F7D03C0809180008F772B
:1039E00080938000089584B58F7702C084B58F7D61
:1039F00084BD08958091B0008F7703C08091B0009E
:103A00008F7D8093B0000895CF93DF9390E0FC0109
:103A1000ED5AFE4D2491FC01E959FE4D8491882315
:103A200049F190E0880F991FFC01E157FE4DA591E7
:103A3000B4918B579E4DFC01C591D4919FB76111F4
:103A400008C0F8948C91209582238C9388818223DE
:103A50000AC0623051F4F8948C91322F3095832350
:103A60008C938881822B888304C0F8948C91822B5C
:103A70008C939FBFDF91CF9108950F931F93CF93A6
:103A8000DF931F92CDB7DEB7282F30E0F901E15C5C
:103A9000FE4D8491F901ED5AFE4D1491F901E95959
:103AA000FE4D04910023C9F0882321F069830E9410
:103AB000DB1C6981E02FF0E0EE0FFF1FEB57FE4D9E
:103AC000A591B4919FB7F8948C91611103C01095A2
:103AD000812301C0812B8C939FBF0F90DF91CF91E9
:103AE0001F910F910895CF93DF93282F30E0F901B4
:103AF000E15CFE4D8491F901ED5AFE4DD491F9013E
:103B0000E959FE4DC491CC2391F081110E94DB1C38
:103B1000EC2FF0E0EE0FFF1FE558FE4DA591B4919C
:103B20002C912D2381E090E021F480E002C080E020
:103B300090E0DF91CF910895BF92CF92DF92EF9204
:103B4000FF920F931F93CF93DF93C82ED62EB42EE0
:103B5000C7E0D0E0022F10E087E0E82EF12CB11092
:103B60000AC0F701EC1BFD0BB80102C07595679503
:103B7000EA95E2F707C0B8010C2E02C0759567956B
:103B80000A94E2F7617077278C2D0E943D1D61E059
:103B90008D2D0E943D1D60E08D2D0E943D1D2197C1
:103BA000F0F6DF91CF911F910F91FF90EF90DF9092
:103BB000CF90BF900895FC0124853585F901E05C24
:103BC000FF4F80819181F901EE5BFF4F20813181B0
:103BD000821B930B8F7399270895FC01848595852B
:103BE000FC01E05CFF4F40815181FC01EE5BFF4F27
:103BF000208131814217530741F00190F081E02D7F
:103C0000E80FF91F808190E008958FEF9FEF0895EE
:103C1000FC0184859585FC01E05CFF4F408151816A
:103C2000FC01EE5BFF4F208131814217530779F091
:103C3000A081B181A80FB91F8C91208131812F5FA4
:103C40003F4F2F7333273183208390E008958FEF08
:103C50009FEF0895FC0181A1882329F0A489B589EB
:103C60008C9186FFFBCF11A20895CF93DF93FC01C7
:103C700026853785D901A05CBF4F8D919C91119706
:103C800001968F739927E901CE5BDF4F48815981F7
:103C900084179507D9F30D90BC91A02DA20FB31FE7
:103CA0006C93A685B785A05CBF4F11969C938E93AD
:103CB000A689B7892C9181E090E0078C02C0880F1B
:103CC000991F0A94E2F7282B2C9381E081A30488A2
:103CD000F589E02D80818064808381E090E0DF9130
:103CE000CF91089508951F920F920FB60F9211244D
:103CF0002F933F934F938F939F93EF93FF938091D5
:103D0000C00082FD1CC04091C60080914D0590917D
:103D10004E0501968F73992720914F0530915005DC
:103D20008217930771F0E0914D05F0914E05E35F26
:103D3000FA4F408390934E0580934D0502C08091C9
:103D4000C600FF91EF919F918F914F913F912F91DD
:103D50000F900FBE0F901F90189587EA94E00E9475
:103D6000DB1D892B11F00C94721E08951F920F9287
:103D70000FB60F9211242F933F938F939F93EF933E
:103D8000FF932091090530910A0580910B059091D0
:103D90000C052817390731F48091C1008F7D80937D
:103DA000C10014C0E0910B05F0910C05E753FB4FE7
:103DB000208180910B0590910C0501968F739927B6
:103DC00090930C0580930B052093C600FF91EF9113
:103DD0009F918F913F912F910F900FBE0F901F9049
:103DE0001895CF92DF92EF92FF92CF93DF93EC0181
:103DF0006A017B01411581EE580761057105F9F0F3
:103E0000EC89FD8981E090E008A002C0880F991F2D
:103E10000A94E2F7808360E079E08DE390E0A70107
:103E200096010E94D4262150310941095109569525
:103E3000479537952795211580E1380798F0EC894B
:103E4000FD89108260E874E88EE190E0A701960198
:103E50000E94D426215031094109510956954795B0
:103E600037952795E889F9893083EA89FB8920838A
:103E700019A2EE89FF89408181E090E09C010C8CC1
:103E800002C0220F331F0A94E2F7422B4083EE89CF
:103E9000FF8940819C010D8C02C0220F331F0A94C0
:103EA000E2F7422B4083EE89FF8940819C010E8C12
:103EB00002C0220F331F0A94E2F7422B4083EE899F
:103EC000FF8920810F8C02C0880F991F0A94E2F7A6
:103ED000809582238083DF91CF91FF90EF90DF90D8
:103EE000CF9008951092AA041092A90488EE93E04E
:103EF000A0E0B0E08093AB049093AC04A093AD0439
:103F0000B093AE0483E694E09093A8048093A70452
:103F10008DE095E09093B4048093B30489EC94E031
:103F20009093B6048093B50485EC90E09093B80428
:103F30008093B70484EC90E09093BA048093B90422
:103F400080EC90E09093BC048093BB0481EC90E003
:103F50009093BE048093BD0482EC90E09093C004E3
:103F60008093BF0486EC90E09093C2048093C104D8
:103F700084E08093C30483E08093C40487E080934B
:103F8000C50485E08093C60481E08093C70408954A
:103F90000E94A01C0E94231BCDEADEE10E94931B1D
:103FA0002097E1F30E94AD1EF9CFCF92DF92EF92FE
:103FB000FF920F931F93CF93DF936C017A01EB0174
:103FC000E60EF71E00E010E0CE15DF0561F0699106
:103FD000D601ED91FC910190F081E02DC60109958B
:103FE000080F191FF1CFC801DF91CF911F910F91D9
:103FF000FF90EF90DF90CF9008956115710581F0EB
:10400000DB010D900020E9F7AD0141505109461B3D
:10401000570BDC01ED91FC910280F381E02D0994B6
:1040200080E090E00895EF92FF920F931F93CF935B
:10403000DF938C01FB01C0E0D0E064917F018FEF42
:10404000E81AF80A662361F0D801ED91FC9101901D
:10405000F081E02DC8010995C80FD91FF701EDCFF8
:10406000CE01DF91CF911F910F91FF90EF900895B6
:10407000DC01ED91FC910190F081E02D09940F930A
:104080001F93CF93DF93EC016DE00E9438208C01E9
:104090006AE0CE010E943820800F911FDF91CF91FE
:1040A0001F910F9108950F931F93CF93DF93EC010E
:1040B0000E94FD1F8C01CE010E943F20800F911FA6
:1040C000DF91CF911F910F910895CF93DF9300D08F
:1040D00000D0CDB7DEB79B01AC016115710581053C
:1040E000910569F069833A834B835C830E94802544
:1040F00029813A814B815C810E94F62603C060E0F1
:1041000070E0CB010F900F900F900F90DF91CF9147
:104110000895CF92DF92EF92FF926B017C016217BC
:1041200073078407950764F4CA01B9016C197D0906
:104130008E099F090E9465206C0D7D1D8E1D9F1D9F
:10414000FF90EF90DF90CF9008954F925F926F9223
:104150007F92AF92BF92CF92DF92EF92FF920F9336
:104160001F93CF93DF93CDB7DEB729013A01621BCE
:10417000730B840B950B29893A894B895C892A1921
:104180003B094C095D09298B3A8B4B8B5C8B9B015E
:10419000AC0169897A898B899C890E949026E418F0
:1041A000F50806091709A80197010E94F6262A0DAD
:1041B0003B1D4C1D5D1DCA01B901DF91CF911F91BF
:1041C0000F91FF90EF90DF90CF90BF90AF907F90D6
:1041D0006F905F904F900895FC01808191810C94C5
:1041E000A224CF93DF93EC0188819981009711F08D
:1041F0000E94A224198218821D821C821B821A82AC
:10420000DF91CF9108950F931F93CF93DF93EC012C
:104210008B016F5F7F4F888199810E948E25009767
:1042200031F0998388831B830A8381E001C080E099
:10423000DF91CF911F910F910895CF93DF93EC0100
:1042400088819981892B29F08A819B81861797071C
:1042500060F4CE010E940321882341F08C819D816E
:10426000892B19F4E881F981108281E0DF91CF91E7
:104270000895EF92FF920F931F93CF93DF93EC017A
:104280007B018A01BA010E941D21811104C0CE0167
:104290000E94F12007C01D830C83B701888199819A
:1042A0000E947626CE01DF91CF911F910F91FF9052
:1042B000EF900895FC011182108213821282158200
:1042C000148216826115710559F0FB0101900020DE
:1042D000E9F7AF0141505109461B570B0C943921A6
:1042E0000895CF93DF93EC016115710561F0FB0137
:1042F00001900020E9F7AF0141505109461B570BCF
:104300000E94392102C00E94F120CE01DF91CF919D
:10431000089561E08AE00E943D1D61E08AE00E940C
:10432000041D8CB580618CBD8CB580648CBD61E052
:104330008DE00E94041D61E08BE00C94041D81114E
:1043400003C08CB5806202C08CB58F7D8CBD089592
:104350009CB5937F982B9CBD08951F920F920FB62A
:104360000F9211242F933F934F935F936F937F93FB
:104370008F939F93AF93BF93EF93FF9380915205D9
:1043800087FF05C010928500109284001AC020910A
:104390005205332727FD30958091510590E028176D
:1043A00039077CF480915205992787FD9095FC018F
:1043B000EE0FFF1FE80FF91FED5AFA4F808186FDBF
:1043C00015C0809152058F5F809352052091520550
:1043D000332727FD30958091510590E02817390744
:1043E000BCF4809152058C305CF112C08091520572
:1043F000992787FD9095FC01EE0FFF1FE80FF91F2D
:10440000ED5AFA4F808160E08F730E943D1DD9CF35
:104410008091840090918500049680349C4918F422
:1044200080E49CE905C08091840090918500049609
:1044300090938900809388008FEF8093520538C055
:10444000809184009091850020915205332727FDAB
:104450003095F901EE0FFF1FE20FF31FED5AFA4FEF
:1044600021813281820F931F90938900809388006D
:1044700080915205992787FD9095FC01EE0FFF1F53
:10448000E80FF91FED5AFA4F808186FF11C0809125
:104490005205992787FD9095FC01EE0FFF1FE80F4D
:1044A000F91FED5AFA4F808161E08F730E943D1D24
:1044B000FF91EF91BF91AF919F918F917F916F91FC
:1044C0005F914F913F912F910F900FBE0F901F90D2
:1044D0001895209151052C30A0F431E0320F309323
:1044E0005105FC012083822F90E0FC01EE0FFF1F9D
:1044F000E80FF91FED5AFA4F88EB9BE09283818316
:1045000008952FEFFC0120830895DF92EF92FF9230
:104510000F931F93CF93DF93EC01D62E7A0189017D
:1045200088818C3008F066C061E08D2D0E94041DEA
:104530008881A82FB0E0FD01EE0FFF1FEA0FFB1FDF
:10454000ED5AFA4F2D2D2F739081907C922B9083F2
:1045500060E272E06E197F0977FF02C06D5F7F4FE6
:104560007595679575956795698340E659E0401B99
:10457000510B57FF02C04D5F5F4F559547955595BD
:1045800047954A836CE00E94A0269CE0899FB00179
:10459000112420E030E0A901460F571FFA01EE0F69
:1045A000FF1FE40FF51FED5AFA4F908196FD16C0DC
:1045B0002F5F3F4F2C30310571F781110FC01092E2
:1045C000800082E080938100109285001092840028
:1045D000B19A80916F00826080936F00888190E033
:1045E000FC01EE0FFF1FE80FF91FED5AFA4F808113
:1045F000806480838881DF91CF911F910F91FF901C
:10460000EF90DF90089520E639E040E252E00C940C
:104610008522FC0180818C3070F5918128E830E0A2
:10462000291B310997FD3395220F331F220F331FAA
:10463000621773077CF0928128E532E0291B31096B
:1046400097FD3395220F331F220F331F6217730715
:104650000CF49B014FB7F89490E0FC01EE0FFF1FA4
:10466000E80FF91FED5AFA4F22503109220F331F7C
:10467000328321834FBF08954F925F926F927F9252
:10468000AF92BF92CF92DF92EF92FF920F931F9360
:10469000CF93DF93EC01603282E078070CF040C0EA
:1046A00077FD06C0653B71052CF064EB70E002C03D
:1046B00060E070E0898128E830E0281B310987FD3F
:1046C0003395220F331F220F331F5901CC24B7FC1F
:1046D000C094DC2C882777FD8095982F2A8148E5A7
:1046E00052E0421B510927FD5395440F551F440FBB
:1046F000551F2A01662457FC6094762C7F926F9296
:104700005F924F9214EBE12EF12C00E010E020E0DC
:1047100030E0A9010E94A5200F900F900F900F90FC
:10472000CE01DF91CF911F910F91FF90EF90DF901D
:10473000CF90BF90AF907F906F905F904F900C9410
:104740000923FC0180818F3FB1F090E0FC01EE0F66
:10475000FF1FE80FF91FED5AFA4F8181928143E064
:10476000880F991F4A95E1F754E0969587955A95D9
:10477000E1F70296089580E090E00895AF92BF922D
:10478000CF92DF92EF92FF920F931F93CF93DF931D
:10479000EC010E94A1232A8148E552E0421B510905
:1047A00027FD5395440F551F440F551F7A010027CD
:1047B000F7FC0095102F498128E830E0241B3109CF
:1047C00047FD3395220F331F220F331F442737FD38
:1047D0004095542F0196BC01882777FD8095982F2E
:1047E0001F921F921F92E4EBEF93A12CB12C650155
:1047F0000E94A5200F900F900F900F90CB01DF919A
:10480000CF911F910F91FF90EF90DF90CF90BF90CD
:10481000AF900895CF93DF938230910510F482E03A
:1048200090E0E0917905F0917A0520E030E0A0E099
:10483000B0E0309739F14081518148175907B8F0FD
:104840004817590771F482819381109729F01396C4
:104850009C938E9312972CC090937A058093790540
:1048600027C02115310531F04217530718F0A9016F
:10487000DB0101C0EF019A01BD01DF010280F3817C
:10488000E02DD7CF21153105F9F0281B390B243045
:10489000310580F48A819B816115710521F0FB014E
:1048A0009383828304C090937A0580937905FE01F7
:1048B000329644C0FE01E20FF31F81939193225080
:1048C0003109398328833AC02091770530917805E2
:1048D000232B41F42091020130910301309378059C
:1048E00020937705209100013091010121153105B8
:1048F00041F42DB73EB74091040150910501241BAE
:10490000350BE0917705F0917805E217F307A0F4F5
:104910002E1B3F0B2817390778F0AC014E5F5F4F15
:104920002417350748F04E0F5F1F509378054093CA
:1049300077058193919302C0E0E0F0E0CF01DF9131
:10494000CF910895CF93DF93009709F487C0FC01BE
:10495000329713821282C0917905D0917A052097FF
:1049600081F420813181280F391F80917705909142
:1049700078058217930779F5F0937805E09377052A
:104980006DC0DE0120E030E0AE17BF0750F4129694
:104990004D915C9113979D014115510509F1DA0183
:1049A000F3CFB383A28340815181840F951F8A176F
:1049B0009B0771F48D919C911197840F951F02961E
:1049C0009183808312968D919C9113979383828318
:1049D0002115310529F4F0937A05E09379053EC05D
:1049E000D9011396FC93EE9312974D915D91A40F0C
:1049F000B51FEA17FB0779F480819181840F951F19
:104A00000296D90111969C938E938281938113967D
:104A10009C938E931297E0E0F0E08A819B8100974F
:104A200019F0FE01EC01F9CFCE01029628813981FF
:104A3000820F931F20917705309178052817390749
:104A400069F4309729F410927A051092790502C022
:104A500013821282D0937805C0937705DF91CF91AE
:104A600008958F929F92AF92BF92CF92DF92EF9272
:104A7000FF92CF93DF93EC01688179818A819B81DA
:104A8000611571058105910521F464E279ED8BE5ED
:104A900097E02DE133EF41E050E00E94F626490116
:104AA0005A019B01AC01A7EAB1E40E947D266B018B
:104AB0007C01ACEEB4EFA50194010E948B26C60EDA
:104AC000D71EE81EF91EF7FE06C081E0C81AD108FD
:104AD000E10880E8F80AC882D982EA82FB82C7012D
:104AE000B6019F77DF91CF91FF90EF90DF90CF904D
:104AF000BF90AF909F908F9008950E9431250895A8
:104B000086E091E00E94312508956093060170933C
:104B1000070180930801909309010895A0E0B0E097
:104B2000E4E9F5E20C941927EC01CB01209719F484
:104B30000E940A24B8C0FE01E60FF71F9E01225012
:104B40003109E217F30708F4ACC0D9010D911C91AB
:104B5000119706171707B8F00530110508F49FC024
:104B6000A801445051094617570708F498C002504D
:104B70001109061B170B019311936D937C93CF01C1
:104B80000E94A2248CC05B01A01AB10A4E01800EC3
:104B9000911EA0917905B0917A05612C712C60E08D
:104BA00070E0109709F449C0A815B905C9F5ED9052
:104BB000FC901197670142E0C40ED11CCA14DB04BB
:104BC00078F147018A189B08640142E0C40ED11CA9
:104BD0001296BC9012971396AC91B5E0CB16D10407
:104BE00040F0B282A38391828082D9018D939C93FD
:104BF00009C00E5F1F4F0E0D1F1DF90111830083A9
:104C0000EB2DFA2F6115710531F0DB011396FC9342
:104C1000EE93129744C0F0937A05E09379053FC074
:104C20006D917C9111976616770608F43B01BD01E2
:104C300012960D90BC91A02DB4CF60917705709124
:104C4000780568157905E9F468167906D0F440917D
:104C50000001509101014115510541F44DB75EB776
:104C60006091040170910501461B570BE417F5078D
:104C7000C0F4F0937805E0937705F9019183808380
:104C80000EC00E940A247C01009759F0A801BE01C1
:104C90000E946426CE010E94A224C70104C0CE0156
:104CA00002C080E090E0CDB7DEB7EEE00C9435278F
:104CB000F8940C946127FB01DC0102C005900D9271
:104CC00041505040D8F70895FB01DC0102C001902B
:104CD0000D9241505040D8F70895FB01DC018D91B1
:104CE000019080190110D9F3990B0895FB01DC01A3
:104CF00001900D920020E1F708950E945227A59F90
:104D0000900DB49F900DA49F800D911D11240895C6
:104D1000B7FF0C947D260E947D26821B930B08957D
:104D2000DB018F939F930E947D26BF91AF91A29F3D
:104D3000800D911DA39F900DB29F900D1124089599
:104D4000991B79E004C0991F961708F0961B881FDD
:104D50007A95C9F780950895AA1BBB1B51E107C03E
:104D6000AA1FBB1FA617B70710F0A61BB70B881FFB
:104D7000991F5A95A9F780959095BC01CD0108958A
:104D800097FB072E16F4009407D077FD09D00E94F8
:104D9000AC2607FC05D03EF4909581959F4F089571
:104DA000709561957F4F0895A1E21A2EAA1BBB1B37
:104DB000FD010DC0AA1FBB1FEE1FFF1FA217B307E7
:104DC000E407F50720F0A21BB30BE40BF50B661FFD
:104DD000771F881F991F1A9469F7609570958095C1
:104DE00090959B01AC01BD01CF010895052E97FB65
:104DF0001EF400940E940D2757FD07D00E94D42670
:104E000007FC03D04EF40C940D2750954095309537
:104E100021953F4F4F4F5F4F089590958095709526
:104E200061957F4F8F4F9F4F08952F923F924F92E2
:104E30005F926F927F928F929F92AF92BF92CF922A
:104E4000DF92EF92FF920F931F93CF93DF93CDB733
:104E5000DEB7CA1BDB0B0FB6F894DEBF0FBECDBFAB
:104E600009942A88398848885F846E847D848C847C
:104E70009B84AA84B984C884DF80EE80FD800C8185
:104E80001B81AA81B981CE0FD11D0FB6F894DEBF68
:104E90000FBECDBFED010895EE0FFF1F0590F491F9
:104EA000E02D0994A29FB001B39FC001A39F700D94
:104EB000811D1124911DB29F700D811D1124911D22
:104EC000089511E2C0EAD1E204C0FE010E944E271B
:0C4ED0002296C23AD107C9F7F894FFCF30
:104EDC0000007B05200001000000556E6B6E6F77A3
:104EEC006E206572726F72005049434320636F6D80
:104EFC00706C69616E7420776974682049534F2F08
:104F0C004945432031343434332D34005049434324
:104F1C0020636F6D706C69616E74207769746820A2
:104F2C0049534F2F49454320313830393220284ED0
:104F3C00464329004D4946415245204D696E692C26
:104F4C0020333230206279746573004D49464152EA
:104F5C004520314B42004D494641524520344B428D
:104F6C00004D494641524520556C7472616C69671D
:104F7C006874206F7220556C7472616C6967687408
:104F8C002043004D494641524520506C7573004DED
:104F9C00494641524520544E5033585858005341BD
:104FAC004B20696E646963617465732055494420B4
:104FBC006973206E6F7420636F6D706C6574652EF1
:104FCC0000556E6B6E6F776E2074797065002030B3
:104FDC000020202020202020005043445F41757485
:104FEC0068656E7469636174652829206661696CF3
:104FFC0065643A20004D49464152455F52656164F3
:10500C002829206661696C65643A200020496E7617
:10501C00657274656420616363657373206269747F
:10502C007320646964206E6F74206D6174636821F1
:10503C0020002056616C75653D307800204164720B
:10504C003D307800205B2000205D200053656374A8
:10505C006F7220426C6F636B202020302020312037
:10506C0020322020332020203420203520203620D0
:10507C002037202020382020392031302031312099
:10508C00203132203133203134203135202041631E
:10509C0063657373426974730050616765202030D7
:1050AC0020203120203220203300436172642055AF
:1050BC0049443A005049434320747970653A2000C2
:1050CC0044756D70696E67206D656D6F72792063C4
:1050DC006F6E74656E7473206E6F7420696D706C76
:1050EC00656D656E74656420666F7220746861749A
:1050FC00205049434320747970652E0053756363C7
:10510C006573732E004572726F7220696E20636F27
:10511C006D6D756E69636174696F6E2E00436F6C93
:10512C006C697373696F6E20646574656374656410
:10513C002E0054696D656F757420696E20636F6DF8
:10514C006D756E69636174696F6E2E0041206275B6
:10515C0066666572206973206E6F742062696720C1
:10516C00656E6F7567682E00496E7465726E616C42
:10517C00206572726F7220696E2074686520636F8F
:10518C0064652E2053686F756C64206E6F74206894
:10519C00617070656E2E00496E76616C6964206179
:1051AC007267756D656E742E0054686520435243AA
:1051BC005F4120646F6573206E6F74206D61746342
:1051CC00682E0041204D49464152452050494343E9
:1051DC0020726573706F6E646564207769746820E3
:1051EC004E414B2E002C0335034D0362037C039878
:1051FC0003C703D903F303616E7200630077006E7B
:10520C0000FF1FBF1E7F1D3F1CFF1ABF197F183FD9
:10521C0017FF15BF147F133F12FF10BF0F7F0E3FF8
:10522C000DFF0BBF0A7F093F08FF067F04BF050077
:10523C00000000351ED51FDB1D081EED1D2A1E00AB
:00000001FF
